{
  "_format": "hh-sol-artifact-1",
  "contractName": "LuckySpinFHE_KMS_Final",
  "sourceName": "contracts/LuckySpinFHE_KMS_Final.sol",
  "abi": [
    {
      "inputs": [],
      "stateMutability": "nonpayable",
      "type": "constructor"
    },
    {
      "anonymous": false,
      "inputs": [
        {
          "indexed": true,
          "internalType": "address",
          "name": "user",
          "type": "address"
        },
        {
          "indexed": false,
          "internalType": "uint256",
          "name": "timestamp",
          "type": "uint256"
        }
      ],
      "name": "CheckInCompleted",
      "type": "event"
    },
    {
      "anonymous": false,
      "inputs": [
        {
          "indexed": true,
          "internalType": "address",
          "name": "user",
          "type": "address"
        },
        {
          "indexed": false,
          "internalType": "uint256",
          "name": "amount",
          "type": "uint256"
        },
        {
          "indexed": false,
          "internalType": "bool",
          "name": "success",
          "type": "bool"
        }
      ],
      "name": "ClaimProcessed",
      "type": "event"
    },
    {
      "anonymous": false,
      "inputs": [
        {
          "indexed": true,
          "internalType": "address",
          "name": "user",
          "type": "address"
        },
        {
          "indexed": false,
          "internalType": "uint256",
          "name": "amount",
          "type": "uint256"
        }
      ],
      "name": "ClaimRequested",
      "type": "event"
    },
    {
      "anonymous": false,
      "inputs": [
        {
          "indexed": true,
          "internalType": "address",
          "name": "user",
          "type": "address"
        }
      ],
      "name": "ErrorChanged",
      "type": "event"
    },
    {
      "anonymous": false,
      "inputs": [
        {
          "indexed": true,
          "internalType": "address",
          "name": "user",
          "type": "address"
        },
        {
          "indexed": false,
          "internalType": "uint256",
          "name": "amount",
          "type": "uint256"
        }
      ],
      "name": "EthClaimed",
      "type": "event"
    },
    {
      "anonymous": false,
      "inputs": [
        {
          "indexed": true,
          "internalType": "address",
          "name": "user",
          "type": "address"
        },
        {
          "indexed": false,
          "internalType": "uint256",
          "name": "amount",
          "type": "uint256"
        }
      ],
      "name": "GmTokensBought",
      "type": "event"
    },
    {
      "anonymous": false,
      "inputs": [
        {
          "indexed": true,
          "internalType": "address",
          "name": "user",
          "type": "address"
        }
      ],
      "name": "GmTokensBoughtFHE",
      "type": "event"
    },
    {
      "anonymous": false,
      "inputs": [
        {
          "indexed": true,
          "internalType": "address",
          "name": "user",
          "type": "address"
        },
        {
          "indexed": false,
          "internalType": "uint256",
          "name": "score",
          "type": "uint256"
        }
      ],
      "name": "ScorePublished",
      "type": "event"
    },
    {
      "anonymous": false,
      "inputs": [
        {
          "indexed": true,
          "internalType": "address",
          "name": "user",
          "type": "address"
        }
      ],
      "name": "ScoreUnpublished",
      "type": "event"
    },
    {
      "anonymous": false,
      "inputs": [
        {
          "indexed": true,
          "internalType": "address",
          "name": "user",
          "type": "address"
        },
        {
          "indexed": false,
          "internalType": "uint256",
          "name": "newTotalScore",
          "type": "uint256"
        },
        {
          "indexed": false,
          "internalType": "uint256",
          "name": "delta",
          "type": "uint256"
        }
      ],
      "name": "ScoreUpdated",
      "type": "event"
    },
    {
      "anonymous": false,
      "inputs": [
        {
          "indexed": true,
          "internalType": "address",
          "name": "user",
          "type": "address"
        },
        {
          "indexed": false,
          "internalType": "uint64",
          "name": "count",
          "type": "uint64"
        }
      ],
      "name": "SpinBoughtWithGm",
      "type": "event"
    },
    {
      "anonymous": false,
      "inputs": [
        {
          "indexed": true,
          "internalType": "address",
          "name": "user",
          "type": "address"
        },
        {
          "indexed": false,
          "internalType": "string",
          "name": "result",
          "type": "string"
        }
      ],
      "name": "SpinCompleted",
      "type": "event"
    },
    {
      "anonymous": false,
      "inputs": [
        {
          "indexed": true,
          "internalType": "address",
          "name": "user",
          "type": "address"
        },
        {
          "indexed": false,
          "internalType": "uint8",
          "name": "slot",
          "type": "uint8"
        },
        {
          "indexed": false,
          "internalType": "uint256",
          "name": "prizeWei",
          "type": "uint256"
        },
        {
          "indexed": false,
          "internalType": "uint64",
          "name": "gmDelta",
          "type": "uint64"
        }
      ],
      "name": "SpinOutcome",
      "type": "event"
    },
    {
      "anonymous": false,
      "inputs": [
        {
          "indexed": true,
          "internalType": "address",
          "name": "user",
          "type": "address"
        },
        {
          "indexed": false,
          "internalType": "uint256",
          "name": "version",
          "type": "uint256"
        }
      ],
      "name": "UserStateChanged",
      "type": "event"
    },
    {
      "inputs": [],
      "name": "GM_TOKEN_RATE",
      "outputs": [
        {
          "internalType": "uint256",
          "name": "",
          "type": "uint256"
        }
      ],
      "stateMutability": "view",
      "type": "function"
    },
    {
      "inputs": [],
      "name": "SECONDS_PER_DAY",
      "outputs": [
        {
          "internalType": "uint256",
          "name": "",
          "type": "uint256"
        }
      ],
      "stateMutability": "view",
      "type": "function"
    },
    {
      "inputs": [],
      "name": "buyGmTokens",
      "outputs": [],
      "stateMutability": "payable",
      "type": "function"
    },
    {
      "inputs": [
        {
          "internalType": "externalEuint64",
          "name": "encryptedAmount",
          "type": "bytes32"
        },
        {
          "internalType": "bytes",
          "name": "proof",
          "type": "bytes"
        }
      ],
      "name": "buyGmTokensFHE",
      "outputs": [],
      "stateMutability": "payable",
      "type": "function"
    },
    {
      "inputs": [],
      "name": "buySpinWithGm",
      "outputs": [],
      "stateMutability": "nonpayable",
      "type": "function"
    },
    {
      "inputs": [
        {
          "internalType": "uint64",
          "name": "count",
          "type": "uint64"
        }
      ],
      "name": "buySpinWithGmBatch",
      "outputs": [],
      "stateMutability": "nonpayable",
      "type": "function"
    },
    {
      "inputs": [],
      "name": "checkIn",
      "outputs": [],
      "stateMutability": "nonpayable",
      "type": "function"
    },
    {
      "inputs": [
        {
          "internalType": "address",
          "name": "",
          "type": "address"
        }
      ],
      "name": "claimRequestAmount",
      "outputs": [
        {
          "internalType": "uint256",
          "name": "",
          "type": "uint256"
        }
      ],
      "stateMutability": "view",
      "type": "function"
    },
    {
      "inputs": [
        {
          "internalType": "address",
          "name": "",
          "type": "address"
        }
      ],
      "name": "claimRequestTimestamp",
      "outputs": [
        {
          "internalType": "uint256",
          "name": "",
          "type": "uint256"
        }
      ],
      "stateMutability": "view",
      "type": "function"
    },
    {
      "inputs": [],
      "name": "dailyGm",
      "outputs": [],
      "stateMutability": "nonpayable",
      "type": "function"
    },
    {
      "inputs": [],
      "name": "emergencyWithdraw",
      "outputs": [],
      "stateMutability": "nonpayable",
      "type": "function"
    },
    {
      "inputs": [
        {
          "internalType": "address",
          "name": "user",
          "type": "address"
        }
      ],
      "name": "getClaimRequest",
      "outputs": [
        {
          "internalType": "uint256",
          "name": "amount",
          "type": "uint256"
        },
        {
          "internalType": "uint256",
          "name": "timestamp",
          "type": "uint256"
        }
      ],
      "stateMutability": "view",
      "type": "function"
    },
    {
      "inputs": [],
      "name": "getContractBalance",
      "outputs": [
        {
          "internalType": "uint256",
          "name": "",
          "type": "uint256"
        }
      ],
      "stateMutability": "view",
      "type": "function"
    },
    {
      "inputs": [
        {
          "internalType": "address",
          "name": "user",
          "type": "address"
        }
      ],
      "name": "getEncryptedLastSlot",
      "outputs": [
        {
          "internalType": "euint64",
          "name": "",
          "type": "bytes32"
        }
      ],
      "stateMutability": "view",
      "type": "function"
    },
    {
      "inputs": [
        {
          "internalType": "address",
          "name": "user",
          "type": "address"
        }
      ],
      "name": "getEncryptedPendingEthWei",
      "outputs": [
        {
          "internalType": "euint64",
          "name": "",
          "type": "bytes32"
        }
      ],
      "stateMutability": "view",
      "type": "function"
    },
    {
      "inputs": [
        {
          "internalType": "address",
          "name": "user",
          "type": "address"
        }
      ],
      "name": "getEncryptedPublicScore",
      "outputs": [
        {
          "internalType": "euint64",
          "name": "",
          "type": "bytes32"
        }
      ],
      "stateMutability": "view",
      "type": "function"
    },
    {
      "inputs": [
        {
          "internalType": "uint256",
          "name": "offset",
          "type": "uint256"
        },
        {
          "internalType": "uint256",
          "name": "limit",
          "type": "uint256"
        }
      ],
      "name": "getEncryptedPublishedRange",
      "outputs": [
        {
          "internalType": "address[]",
          "name": "addrs",
          "type": "address[]"
        },
        {
          "internalType": "euint64[]",
          "name": "encryptedScores",
          "type": "bytes32[]"
        }
      ],
      "stateMutability": "view",
      "type": "function"
    },
    {
      "inputs": [
        {
          "internalType": "address",
          "name": "user",
          "type": "address"
        }
      ],
      "name": "getEncryptedScore",
      "outputs": [
        {
          "internalType": "euint64",
          "name": "",
          "type": "bytes32"
        }
      ],
      "stateMutability": "view",
      "type": "function"
    },
    {
      "inputs": [
        {
          "internalType": "address",
          "name": "user",
          "type": "address"
        }
      ],
      "name": "getEncryptedUserBundle",
      "outputs": [
        {
          "internalType": "euint64",
          "name": "spins",
          "type": "bytes32"
        },
        {
          "internalType": "euint64",
          "name": "gm",
          "type": "bytes32"
        },
        {
          "internalType": "euint64",
          "name": "pendingEthWei",
          "type": "bytes32"
        },
        {
          "internalType": "euint64",
          "name": "lastSlot",
          "type": "bytes32"
        },
        {
          "internalType": "euint64",
          "name": "score",
          "type": "bytes32"
        }
      ],
      "stateMutability": "view",
      "type": "function"
    },
    {
      "inputs": [
        {
          "internalType": "address",
          "name": "user",
          "type": "address"
        }
      ],
      "name": "getLastError",
      "outputs": [
        {
          "internalType": "euint8",
          "name": "code",
          "type": "bytes32"
        },
        {
          "internalType": "uint256",
          "name": "timestamp",
          "type": "uint256"
        }
      ],
      "stateMutability": "view",
      "type": "function"
    },
    {
      "inputs": [
        {
          "internalType": "uint256",
          "name": "offset",
          "type": "uint256"
        },
        {
          "internalType": "uint256",
          "name": "limit",
          "type": "uint256"
        }
      ],
      "name": "getPublishedRange",
      "outputs": [
        {
          "internalType": "address[]",
          "name": "addrs",
          "type": "address[]"
        },
        {
          "internalType": "uint256[]",
          "name": "scores",
          "type": "uint256[]"
        }
      ],
      "stateMutability": "view",
      "type": "function"
    },
    {
      "inputs": [
        {
          "internalType": "address",
          "name": "user",
          "type": "address"
        }
      ],
      "name": "getUserGmBalance",
      "outputs": [
        {
          "internalType": "euint64",
          "name": "",
          "type": "bytes32"
        }
      ],
      "stateMutability": "view",
      "type": "function"
    },
    {
      "inputs": [
        {
          "internalType": "address",
          "name": "user",
          "type": "address"
        }
      ],
      "name": "getUserRewards",
      "outputs": [
        {
          "internalType": "euint256",
          "name": "",
          "type": "bytes32"
        }
      ],
      "stateMutability": "view",
      "type": "function"
    },
    {
      "inputs": [
        {
          "internalType": "address",
          "name": "user",
          "type": "address"
        }
      ],
      "name": "getUserSpins",
      "outputs": [
        {
          "internalType": "euint64",
          "name": "",
          "type": "bytes32"
        }
      ],
      "stateMutability": "view",
      "type": "function"
    },
    {
      "inputs": [
        {
          "internalType": "address",
          "name": "user",
          "type": "address"
        }
      ],
      "name": "hasPendingClaim",
      "outputs": [
        {
          "internalType": "bool",
          "name": "",
          "type": "bool"
        }
      ],
      "stateMutability": "view",
      "type": "function"
    },
    {
      "inputs": [
        {
          "internalType": "address",
          "name": "user",
          "type": "address"
        }
      ],
      "name": "isScorePublished",
      "outputs": [
        {
          "internalType": "bool",
          "name": "",
          "type": "bool"
        }
      ],
      "stateMutability": "view",
      "type": "function"
    },
    {
      "inputs": [
        {
          "internalType": "address",
          "name": "",
          "type": "address"
        }
      ],
      "name": "lastCheckInDay",
      "outputs": [
        {
          "internalType": "uint256",
          "name": "",
          "type": "uint256"
        }
      ],
      "stateMutability": "view",
      "type": "function"
    },
    {
      "inputs": [
        {
          "internalType": "address",
          "name": "",
          "type": "address"
        }
      ],
      "name": "lastCheckInTime",
      "outputs": [
        {
          "internalType": "uint256",
          "name": "",
          "type": "uint256"
        }
      ],
      "stateMutability": "view",
      "type": "function"
    },
    {
      "inputs": [
        {
          "internalType": "address",
          "name": "",
          "type": "address"
        }
      ],
      "name": "lastOutcomeCommit",
      "outputs": [
        {
          "internalType": "bytes32",
          "name": "",
          "type": "bytes32"
        }
      ],
      "stateMutability": "view",
      "type": "function"
    },
    {
      "inputs": [
        {
          "internalType": "address",
          "name": "",
          "type": "address"
        }
      ],
      "name": "lastOutcomeNonce",
      "outputs": [
        {
          "internalType": "uint256",
          "name": "",
          "type": "uint256"
        }
      ],
      "stateMutability": "view",
      "type": "function"
    },
    {
      "inputs": [
        {
          "internalType": "address",
          "name": "user",
          "type": "address"
        },
        {
          "internalType": "uint256",
          "name": "amountWei",
          "type": "uint256"
        }
      ],
      "name": "onClaimDecrypted",
      "outputs": [],
      "stateMutability": "nonpayable",
      "type": "function"
    },
    {
      "inputs": [],
      "name": "owner",
      "outputs": [
        {
          "internalType": "address",
          "name": "",
          "type": "address"
        }
      ],
      "stateMutability": "view",
      "type": "function"
    },
    {
      "inputs": [
        {
          "internalType": "address",
          "name": "",
          "type": "address"
        }
      ],
      "name": "pendingClaimRequests",
      "outputs": [
        {
          "internalType": "bool",
          "name": "",
          "type": "bool"
        }
      ],
      "stateMutability": "view",
      "type": "function"
    },
    {
      "inputs": [
        {
          "internalType": "address",
          "name": "",
          "type": "address"
        }
      ],
      "name": "pendingSettlement",
      "outputs": [
        {
          "internalType": "bool",
          "name": "",
          "type": "bool"
        }
      ],
      "stateMutability": "view",
      "type": "function"
    },
    {
      "inputs": [
        {
          "internalType": "euint64",
          "name": "score",
          "type": "bytes32"
        }
      ],
      "name": "publishScore",
      "outputs": [],
      "stateMutability": "nonpayable",
      "type": "function"
    },
    {
      "inputs": [],
      "name": "reinit",
      "outputs": [],
      "stateMutability": "nonpayable",
      "type": "function"
    },
    {
      "inputs": [
        {
          "internalType": "uint256",
          "name": "amountWei",
          "type": "uint256"
        }
      ],
      "name": "requestClaimETH",
      "outputs": [],
      "stateMutability": "nonpayable",
      "type": "function"
    },
    {
      "inputs": [
        {
          "internalType": "uint8",
          "name": "slot",
          "type": "uint8"
        }
      ],
      "name": "settlePrize",
      "outputs": [],
      "stateMutability": "nonpayable",
      "type": "function"
    },
    {
      "inputs": [],
      "name": "spin",
      "outputs": [],
      "stateMutability": "nonpayable",
      "type": "function"
    },
    {
      "inputs": [],
      "name": "spinLite",
      "outputs": [],
      "stateMutability": "nonpayable",
      "type": "function"
    },
    {
      "inputs": [
        {
          "internalType": "address",
          "name": "",
          "type": "address"
        }
      ],
      "name": "spinNonce",
      "outputs": [
        {
          "internalType": "uint256",
          "name": "",
          "type": "uint256"
        }
      ],
      "stateMutability": "view",
      "type": "function"
    },
    {
      "inputs": [
        {
          "internalType": "address",
          "name": "",
          "type": "address"
        }
      ],
      "name": "stateVersion",
      "outputs": [
        {
          "internalType": "uint256",
          "name": "",
          "type": "uint256"
        }
      ],
      "stateMutability": "view",
      "type": "function"
    },
    {
      "inputs": [],
      "name": "unpublishScore",
      "outputs": [],
      "stateMutability": "nonpayable",
      "type": "function"
    },
    {
      "inputs": [],
      "name": "withdrawAllPendingETH",
      "outputs": [],
      "stateMutability": "nonpayable",
      "type": "function"
    },
    {
      "inputs": [
        {
          "internalType": "uint256",
          "name": "amountWei",
          "type": "uint256"
        }
      ],
      "name": "withdrawPendingETH",
      "outputs": [],
      "stateMutability": "nonpayable",
      "type": "function"
    },
    {
      "stateMutability": "payable",
      "type": "receive"
    }
  ],
  "bytecode": "0x608060405234801561001057600080fd5b5061018c6100b0604080516080810182526000808252602082018190529181018290526060810191909152506040805160808101825273687820221192c5b662b25367f70076a37bc79b6c815273848b0066793bcc60346da1f49049357399b8d5956020820152731364cbbf2cdf5032c47d8226a6f6fbd2afcdacac9181019190915273bc91f3dad1a5f19f8390c400196e58073b6a0bc4606082015290565b80517fed8d60e34876f751cc8b014c560745351147d9de11b9347c854e881b128ea60080546001600160a01b03199081166001600160a01b039384161790915560208301517fed8d60e34876f751cc8b014c560745351147d9de11b9347c854e881b128ea6018054831691841691909117905560408301517fed8d60e34876f751cc8b014c560745351147d9de11b9347c854e881b128ea6028054831691841691909117905560608301517fed8d60e34876f751cc8b014c560745351147d9de11b9347c854e881b128ea6038054909216921691909117905550565b7f5ea69329017273582817d320489fbd94f775580e90c092699ca6f3d12fdf7d0080546001600160a01b0319167333347831500f1e73f0cccbb95c9f86b94d7b1123179055600a80546001600160a01b031916331790556135c680620001f36000396000f3fe6080604052600436106102765760003560e01c806374f0314f1161014f578063c6a59d67116100c1578063db2e21bc1161007a578063db2e21bc146108fb578063df426b1014610910578063e644924b14610946578063ec1dd21d1461097f578063ee581d7c1461099f578063f0acd7d5146109bf57600080fd5b8063c6a59d67146107fa578063c6ed044114610833578063caf0ca4714610848578063cf1ae5b11461089b578063cf94ba0f146108bb578063d6784754146108ce57600080fd5b80638da5cb5b116101135780638da5cb5b1461070557806394453fae1461073d578063a72c6b221461076a578063c482ceaf14610798578063c483da22146107ad578063c5f0800d146107da57600080fd5b806374f0314f1461066d57806375f36197146106845780637ed00b2d146106ba5780638489302e146106cf5780638d96e6891461033557600080fd5b8063328c81a3116101e8578063638b709a116101ac578063638b709a1461059657806366fbe733146105cc5780636bb92a82146105e15780636f692579146105f75780636f9fb98a1461062d5780637224b7471461064057600080fd5b8063328c81a314610482578063426120cd146104af5780634509e981146104cf57806348890515146104e45780634efaca651461051157600080fd5b806319a902651161023a57806319a902651461034a57806324a13fc01461037757806324a573ca146103a457806324cfbaa6146103da5780632fed4184146104325780633136a3b91461046257600080fd5b8063078b0fb71461028257806307c77ccb146102cb5780630de60b2a1461030b57806311df50451461032d578063183ff0851461033557600080fd5b3661027d57005b600080fd5b34801561028e57600080fd5b506102b861029d3660046130d1565b6001600160a01b031660009081526002602052604090205490565b6040519081526020015b60405180910390f35b3480156102d757600080fd5b506102fb6102e63660046130d1565b600b6020526000908152604090205460ff1681565b60405190151581526020016102c2565b34801561031757600080fd5b5061032b6103263660046130ec565b6109d4565b005b61032b610b2d565b34801561034157600080fd5b5061032b610c3b565b34801561035657600080fd5b506102b86103653660046130d1565b60066020526000908152604090205481565b34801561038357600080fd5b506102b86103923660046130d1565b60196020526000908152604090205481565b3480156103b057600080fd5b506102b86103bf3660046130d1565b6001600160a01b031660009081526003602052604090205490565b3480156103e657600080fd5b5061041d6103f53660046130d1565b6001600160a01b03166000908152600c6020908152604080832054600d909252909120549091565b604080519283526020830191909152016102c2565b34801561043e57600080fd5b506102fb61044d3660046130d1565b601a6020526000908152604090205460ff1681565b34801561046e57600080fd5b5061032b61047d366004613105565b610dc6565b34801561048e57600080fd5b506102b861049d3660046130d1565b60096020526000908152604090205481565b3480156104bb57600080fd5b5061032b6104ca36600461312f565b610f6c565b3480156104db57600080fd5b5061032b611382565b3480156104f057600080fd5b506102b86104ff3660046130d1565b60176020526000908152604090205481565b34801561051d57600080fd5b5061056e61052c3660046130d1565b6001600160a01b031660009081526020818152604080832054600183528184205460058452828520546004855283862054600390955292909420549094919291565b604080519586526020860194909452928401919091526060830152608082015260a0016102c2565b3480156105a257600080fd5b506102b86105b13660046130d1565b6001600160a01b031660009081526020819052604090205490565b3480156105d857600080fd5b5061032b6113d0565b3480156105ed57600080fd5b506102b86103e881565b34801561060357600080fd5b506102b86106123660046130d1565b6001600160a01b031660009081526013602052604090205490565b34801561063957600080fd5b50476102b8565b34801561064c57600080fd5b506102b861065b3660046130d1565b600d6020526000908152604090205481565b34801561067957600080fd5b506102b86201518081565b34801561069057600080fd5b506102b861069f3660046130d1565b6001600160a01b031660009081526005602052604090205490565b3480156106c657600080fd5b5061032b61153e565b3480156106db57600080fd5b506102b86106ea3660046130d1565b6001600160a01b031660009081526004602052604090205490565b34801561071157600080fd5b50600a54610725906001600160a01b031681565b6040516001600160a01b0390911681526020016102c2565b34801561074957600080fd5b506102b86107583660046130d1565b60186020526000908152604090205481565b34801561077657600080fd5b5061078a610785366004613152565b6116cf565b6040516102c29291906131b9565b3480156107a457600080fd5b5061032b611887565b3480156107b957600080fd5b506102b86107c83660046130d1565b60076020526000908152604090205481565b3480156107e657600080fd5b5061032b6107f53660046130ec565b611996565b34801561080657600080fd5b506102fb6108153660046130d1565b6001600160a01b031660009081526014602052604090205460ff1690565b34801561083f57600080fd5b5061032b611aaa565b34801561085457600080fd5b5061041d6108633660046130d1565b6001600160a01b03166000908152600e6020908152604091829020825180840190935280548084526001909101549290910182905291565b3480156108a757600080fd5b5061032b6108b63660046130ec565b611df6565b61032b6108c9366004613210565b611f5e565b3480156108da57600080fd5b506102b86108e93660046130d1565b600c6020526000908152604090205481565b34801561090757600080fd5b5061032b612030565b34801561091c57600080fd5b506102b861092b3660046130d1565b6001600160a01b031660009081526001602052604090205490565b34801561095257600080fd5b506102fb6109613660046130d1565b6001600160a01b03166000908152600b602052604090205460ff1690565b34801561098b57600080fd5b5061078a61099a366004613152565b6120b3565b3480156109ab57600080fd5b5061032b6109ba36600461328c565b612242565b3480156109cb57600080fd5b5061032b612500565b6109dd336128a2565b60008111610a275760405162461bcd60e51b81526020600482015260126024820152710416d6f756e74206d757374206265203e20360741b60448201526064015b60405180910390fd5b33600090815260056020526040902054610a4090612a89565b5033600081815260056020526040902054610a5a91612a99565b503360009081526005602052604081205490610a7583612aae565b90506000610a838383612ac5565b3360009081526005602052604090208190559050610aa081612a89565b5033600081815260056020526040902054610aba91612a99565b50604051339085156108fc029086906000818181858888f19350505050158015610ae8573d6000803e3d6000fd5b5060405184815233907f0d7976053781e071cecf47e898ad2a6dc87621ca33734e96eb4b92453319e8c99060200160405180910390a2610b2733612afe565b50505050565b610b36336128a2565b60003411610b765760405162461bcd60e51b815260206004820152600d60248201526c09aeae6e840e6cadcc8408aa89609b1b6044820152606401610a1e565b6000670de0b6b3a7640000610b8d6103e8346132cc565b610b9791906132f9565b90506000610ba482612aae565b33600090815260016020526040902054909150610bc18183612b71565b336000908152600160205260409020819055610bdc90612a89565b5033600081815260016020526040902054610bf691612a99565b5060405183815233907f2df747ea49445e73b60e268d884585144855c4f022c8d6c7aad44708a9c83b22906020015b60405180910390a2610c3633612afe565b505050565b610c44336128a2565b6000610c5362015180426132f9565b33600090815260076020526040902054909150811180610ccb576040805180820182526011548152426020808301918252336000818152600e90925284822093518455915160019093019290925591517f9c458d4af2e97b032bd1b235a5af0367e4aa9e385b6b4a8ba12d83ee8804659e9190a25050565b3360009081526007602090815260408083208590556006825280832042905590829052902054610d0481610cff6001612aae565b612b71565b336000908152602081905260409020819055610d1f90612a89565b5033600081815260208190526040902054610d3991612a99565b50604080518082018252600f548152426020808301918252336000818152600e90925284822093518455915160019093019290925591517f9c458d4af2e97b032bd1b235a5af0367e4aa9e385b6b4a8ba12d83ee8804659e9190a260405142815233907f81a25468fabedbbaa9179ae90960445ca6426a7aeae439b462bb74f0a89ab37590602001610c25565b610dcf336128a2565b60008167ffffffffffffffff16118015610df4575060328167ffffffffffffffff1611155b610e305760405162461bcd60e51b815260206004820152600d60248201526c1a5b9d985b1a590818dbdd5b9d609a1b6044820152606401610a1e565b3360009081526001602052604081205490610e4c83600a61330d565b90506000610e6c83610e67610e62600186613339565b612aae565b612ba3565b9050610e8a81610e8485610e7f86612aae565b612ac5565b85612bd5565b336000908152600160205260409020819055610ea590612a89565b5033600081815260016020526040902054610ebf91612a99565b5033600090815260208190526040902054610ee782610ee183610cff89612aae565b83612bd5565b336000908152602081905260409020819055610f0290612a89565b5033600081815260208190526040902054610f1c91612a99565b5060405167ffffffffffffffff8616815233907f613edc44c859ae57f4e2745ce37ddc4990be3f919e697b4dd07a5205f81b88b29060200160405180910390a2610f6533612afe565b5050505050565b610f75336128a2565b336000908152601a602052604090205460ff16610fc75760405162461bcd60e51b815260206004820152601060248201526f4e6f2070656e64696e67207072697a6560801b6044820152606401610a1e565b3360008181526019602090815260408083205490519093610fee9230928691889101613361565b60408051601f1981840301815291815281516020928301203360009081526018909352912054909150811461105a5760405162461bcd60e51b8152602060048201526012602482015271125b9d985b1a59081cd95d1d1b195b595b9d60721b6044820152606401610a1e565b8260ff166000036110fa573360009081526005602052604090205461107e90612a89565b503360008181526005602052604090205461109891612a99565b50336000908152600560205260409020546110be81610cff67016345785d8a0000612aae565b3360009081526005602052604090208190556110d990612a89565b50336000818152600560205260409020546110f391612a99565b50506112e1565b8260ff1660010361115d573360009081526005602052604090205461111e90612a89565b503360008181526005602052604090205461113891612a99565b50336000908152600560205260409020546110be81610cff662386f26fc10000612aae565b8260ff166005036111ef573360009081526001602052604090205461118190612a89565b503360008181526001602052604090205461119b91612a99565b50336000908152600160205260409020546111ba81610cff6005612aae565b3360009081526001602052604090208190556111d590612a89565b50336000818152600160205260409020546110f391612a99565b8260ff1660060361124c573360009081526001602052604090205461121390612a89565b503360008181526001602052604090205461122d91612a99565b50336000908152600160205260409020546111ba81610cff600f612aae565b8260ff166007036112e1573360009081526001602052604090205461127090612a89565b503360008181526001602052604090205461128a91612a99565b50336000908152600160205260409020546112a981610cff601e612aae565b3360009081526001602052604090208190556112c490612a89565b50336000818152600160205260409020546112de91612a99565b50505b336000908152600460205260409020546112fa90612a89565b503360008181526004602052604090205461131491612a99565b506113218360ff16612aae565b33600090815260046020526040902081905561133c90612a89565b503360008181526004602052604090205461135691612a99565b50336000818152601a60209081526040808320805460ff191690556018909152812055610c3690612afe565b60405163cf1ae5b160e01b81526000196004820152309063cf1ae5b190602401600060405180830381600087803b1580156113bc57600080fd5b505af1158015610b27573d6000803e3d6000fd5b6113d9336128a2565b33600090815260016020526040812054906113f882610e676009612aae565b90506114128161140c84610e7f600a612aae565b84612bd5565b33600090815260016020526040902081905561142d90612a89565b503360008181526001602052604090205461144791612a99565b503360009081526020819052604090205461146a82610ee183610cff6001612aae565b33600090815260208190526040902081905561148590612a89565b503360008181526020819052604090205461149f91612a99565b5060405180604001604052806114ba84600f54601054612bd5565b815242602091820152336000818152600e83526040808220855181559490930151600190940193909355905190917f9c458d4af2e97b032bd1b235a5af0367e4aa9e385b6b4a8ba12d83ee8804659e91a26040516001815233907f613edc44c859ae57f4e2745ce37ddc4990be3f919e697b4dd07a5205f81b88b290602001610c25565b3360009081526014602052604090205460ff1661155757565b336000908152601460205260408120805460ff1916905561157790612aae565b33600090815260136020526040902081905561159290612a89565b50336000818152601360205260409020546115ac91612a99565b503360009081526016602052604090205480156116a15760155481811461165c57600060156115dc60018461339d565b815481106115ec576115ec6133b0565b6000918252602090912001546001600160a01b0316905080601561161160018661339d565b81548110611621576116216133b0565b600091825260208083209190910180546001600160a01b0319166001600160a01b039485161790559290911681526016909152604090208290555b601580548061166d5761166d6133c6565b60008281526020808220830160001990810180546001600160a01b0319169055909201909255338252601690526040812055505b60405133907f1c6b0c6e774ba78fff6fe943c64e4e530cb52e0ddf625dd35cb80a0f2bd150a090600090a250565b60155460609081908085106117265760005b60405190808252806020026020018201604052801561170a578160200160208202803683370190505b5060408051600081526020810190915290935091506118809050565b600061173285876133f2565b90508181111561173f5750805b600061174b878361339d565b90508067ffffffffffffffff811115611766576117666133dc565b60405190808252806020026020018201604052801561178f578160200160208202803683370190505b5094508067ffffffffffffffff8111156117ab576117ab6133dc565b6040519080825280602002602001820160405280156117d4578160200160208202803683370190505b50935060005b8181101561187b57600060156117f0838b6133f2565b81548110611800576118006133b0565b9060005260206000200160009054906101000a90046001600160a01b0316905080878381518110611833576118336133b0565b60200260200101906001600160a01b031690816001600160a01b0316815250506000868381518110611867576118676133b0565b6020908102919091010152506001016117da565b505050505b9250929050565b336000908152600160205260409020546118a090612a89565b50336000818152600160205260409020546118ba91612a99565b50336000908152602081905260409020546118d490612a89565b50336000818152602081905260409020546118ee91612a99565b503360009081526003602052604090205461190890612a89565b503360008181526003602052604090205461192291612a99565b503360009081526004602052604090205461193c90612a89565b503360008181526004602052604090205461195691612a99565b503360009081526005602052604090205461197090612a89565b503360008181526005602052604090205461198a91612a99565b5061199433612afe565b565b61199f336128a2565b3360009081526014602052604090205460ff16611a2057336000818152601460209081526040808320805460ff191660019081179091556015805491820181557f55f448fdea98c4d29eb340757ef0a66cd03dbb9538908a6a81d96026b71ec47590910180546001600160a01b031916861790555493835260169091529020555b336000908152601360205260409020819055611a3b81612a89565b5033600081815260136020526040902054611a5591612a99565b5033600090815260136020526040902054611a6f90612bea565b506040516000815233907fa8004ebd362175ae54576800b471d2ee0e957a999351c9beec953da1fc20fd40906020015b60405180910390a250565b611ab3336128a2565b33600090815260208190526040902054611acc90612a89565b5033600081815260208190526040902054611ae691612a99565b503360009081526020819052604081205490611b0582610e6783612aae565b9050611b198161140c84610e7f6001612aae565b336000908152602081905260409020819055611b3490612a89565b5033600081815260208190526040902054611b4e91612a99565b50600044423343604051602001611b8b9493929190938452602084019290925260601b6001600160601b0319166040830152605482015260740190565b60408051601f1981840301815291905280516020909101209050600080611bb3606484613405565b90506001811015611bc75760009150611bf1565b60006007611bd66064866132f9565b611be09190613405565b9050611bed8160016133f2565b9250505b600082600514611c205782600614611c195782600714611c12576000611c23565b601e611c23565b600f611c23565b60055b6040805160ff86811682526000602083015292909216908201819052915033907f5c45296401ff630a9654379c00459a908687b562d88c8999c349cb22894b6fcb9060600160405180910390a2336001600160a01b03167ff5e3f4fb3e1b45909c1ea49137114634cea181228f751e1754e5ef8365a165bc604051611cca906020808252600e908201526d14dc1a5b8818dbdb5c1b195d195960921b604082015260600190565b60405180910390a23360008181526017602090815260408083205490519093611cf992309286918a9101613361565b60408051601f1981840301815291815281516020928301203360009081526018845282812082905560198452828120869055601a9093529120805460ff19166001908117909155909150611d4e9083906133f2565b33600090815260176020908152604080832093909355600390522054611d7390612a89565b5033600081815260036020526040902054611d8d91612a99565b5033600090815260036020526040902054611dac81610cff6064612aae565b336000908152600360205260409020819055611dc790612a89565b5033600081815260036020526040902054611de191612a99565b50611deb33612afe565b505050505050505050565b611dff336128a2565b60008111611e445760405162461bcd60e51b81526020600482015260126024820152710416d6f756e74206d757374206265203e20360741b6044820152606401610a1e565b336000908152600b602052604090205460ff1615611e9c5760405162461bcd60e51b8152602060048201526015602482015274436c61696d20616c72656164792070656e64696e6760581b6044820152606401610a1e565b33600090815260056020526040902054611eb590612a89565b5033600081815260056020526040902054611ecf91612a99565b503360009081526005602052604081205490611eea83612aae565b336000818152600b60209081526040808320805460ff19166001179055600c8252808320889055600d9091529081902042905551919250907f71431efdffe03bc79c5607c1cf67764f4cf3e224fb5e5dfc04178260aa0b932290611f519086815260200190565b60405180910390a2505050565b611f67336128a2565b6000611fa98484848080601f016020809104026020016040519081016040528093929190818152602001838380828437600092019190915250612bf592505050565b33600090815260016020526040902054909150611fc68183612b71565b336000908152600160205260409020819055611fe190612a89565b5033600081815260016020526040902054611ffb91612a99565b5060405133907f5eb22460289ffca9a6ef15bf87f9445e6c3d405ec0b5e00e29f466970fbdbaa790600090a2610f6533612afe565b600a546001600160a01b031633146120775760405162461bcd60e51b815260206004820152600a60248201526927b7363c9037bbb732b960b11b6044820152606401610a1e565b600a546040516001600160a01b03909116904780156108fc02916000818181858888f193505050501580156120b0573d6000803e3d6000fd5b50565b60155460609081908085106120c95760006116e1565b60006120d585876133f2565b9050818111156120e25750805b60006120ee878361339d565b90508067ffffffffffffffff811115612109576121096133dc565b604051908082528060200260200182016040528015612132578160200160208202803683370190505b5094508067ffffffffffffffff81111561214e5761214e6133dc565b604051908082528060200260200182016040528015612177578160200160208202803683370190505b50935060005b8181101561187b5760006015612193838b6133f2565b815481106121a3576121a36133b0565b9060005260206000200160009054906101000a90046001600160a01b03169050808783815181106121d6576121d66133b0565b60200260200101906001600160a01b031690816001600160a01b03168152505060136000826001600160a01b03166001600160a01b031681526020019081526020016000205486838151811061222e5761222e6133b0565b60209081029190910101525060010161217d565b600a546001600160a01b0316331461229c5760405162461bcd60e51b815260206004820152601760248201527f4f6e6c79206f776e65722f4b4d532063616e2063616c6c0000000000000000006044820152606401610a1e565b6001600160a01b0382166000908152600b602052604090205460ff166122f75760405162461bcd60e51b815260206004820152601060248201526f4e6f2070656e64696e6720636c61696d60801b6044820152606401610a1e565b6001600160a01b0382166000908152600c602052604090205481146123505760405162461bcd60e51b815260206004820152600f60248201526e082dadeeadce840dad2e6dac2e8c6d608b1b6044820152606401610a1e565b6001600160a01b03821660009081526005602052604090205461237290612a89565b506001600160a01b0382166000908152600560205260409020546123969083612a99565b506001600160a01b038216600090815260056020526040812054906123ba83612aae565b90506123c68282612ac5565b6001600160a01b03851660009081526005602052604090208190556123ea90612a89565b506001600160a01b03841660009081526005602052604090205461240e9085612a99565b506001600160a01b0384166000818152600b60209081526040808320805460ff19169055600c8252808320839055600d9091528082208290555185156108fc0291869190818181858888f1935050505015801561246f573d6000803e3d6000fd5b5060408051848152600160208201526001600160a01b038616917f0297329099dae5ca4aa6944c9566214495dd85b044885e9f5a04afa95d548bd1910160405180910390a2836001600160a01b03167f0d7976053781e071cecf47e898ad2a6dc87621ca33734e96eb4b92453319e8c9846040516124ef91815260200190565b60405180910390a2610b2784612afe565b612509336128a2565b3360009081526020819052604090205461252290612a89565b503360008181526020819052604090205461253c91612a99565b50336000908152602081905260408120549061255b82610e6783612aae565b905060006125696000612aae565b905060006125778483612ba3565b90506000444233436040516020016125b59493929190938452602084019290925260601b6001600160601b0319166040830152605482015260740190565b60408051601f19818403018152919052805160209091012090506000806125dd606484613405565b905060018110156125f1576000915061261b565b600060076126006064866132f9565b61260a9190613405565b90506126178160016133f2565b9250505b60008260051461264a5782600614612643578260071461263c57600061264d565b601e61264d565b600f61264d565b60055b6040805160ff86811682526000602083015292909216908201819052915033907f5c45296401ff630a9654379c00459a908687b562d88c8999c349cb22894b6fcb9060600160405180910390a2336001600160a01b03167ff5e3f4fb3e1b45909c1ea49137114634cea181228f751e1754e5ef8365a165bc6040516126f4906020808252600e908201526d14dc1a5b8818dbdb5c1b195d195960921b604082015260600190565b60405180910390a261270a88610e7f6001612aae565b33600090815260208190526040902081905561272590612a89565b503360008181526020819052604090205461273f91612a99565b50336000818152601760209081526040808320549051909361276792309286918a9101613361565b60408051601f1981840301815291815281516020928301203360009081526018845282812082905560198452828120869055601a9093529120805460ff191660019081179091559091506127bc9083906133f2565b336000908152601760209081526040808320939093556003905220546127e190612a89565b50336000818152600360205260409020546127fb91612a99565b503360009081526003602052604090205461281a81610cff6064612aae565b33600090815260036020526040902081905561283590612a89565b503360008181526003602052604090205461284f91612a99565b5060408051600081526064602082015233917f91878448ef87c3db4aeb83e60e7deb1240ecae3fd04975ec93547398514cb4ed910160405180910390a261289533612afe565b5050505050505050505050565b6001600160a01b03811660009081526008602052604090205460ff16156128c65750565b6128d06000612aae565b6001600160a01b03821660009081526001602052604090208190556128f490612a89565b506001600160a01b0381166000908152600160205260409020546129189082612a99565b506129236000612aae565b6001600160a01b038216600090815260208190526040902081905561294790612a89565b506001600160a01b03811660009081526020819052604090205461296b9082612a99565b506129766000612aae565b6001600160a01b038216600090815260036020526040902081905561299a90612a89565b506001600160a01b0381166000908152600360205260409020546129be9082612a99565b506129c96000612aae565b6001600160a01b03821660009081526004602052604090208190556129ed90612a89565b506001600160a01b038116600090815260046020526040902054612a119082612a99565b50612a1c6000612aae565b6001600160a01b0382166000908152600560205260409020819055612a4090612a89565b506001600160a01b038116600090815260056020526040902054612a649082612a99565b506001600160a01b03166000908152600860205260409020805460ff19166001179055565b6000612a958230612c03565b5090565b6000612aa58383612c03565b50815b92915050565b6000612aa88267ffffffffffffffff166005612c7d565b600082612ad957612ad66000612aae565b92505b81612aeb57612ae86000612aae565b91505b612af783836000612d12565b9392505050565b6001600160a01b0381166000908152600960205260408120805491612b2283613419565b90915550506001600160a01b0381166000818152600960209081526040918290205491519182527faab469e68c1a9950d09bf98d5dbd05ceb4e8e5d3fc891afa9be48ff1911ad4a39101611a9f565b600082612b8557612b826000612aae565b92505b81612b9757612b946000612aae565b91505b612af783836000612dc6565b600082612bb757612bb46000612aae565b92505b81612bc957612bc66000612aae565b91505b612af783836000612e2d565b6000612be2848484612e94565b949350505050565b6000612a9582612f2f565b6000612af783836005612fb0565b6000805160206135518339815191528054604051635ca4b5b160e11b8152600481018590526001600160a01b0384811660248301529091169063b9496b62906044015b600060405180830381600087803b158015612c6057600080fd5b505af1158015612c74573d6000803e3d6000fd5b50505050505050565b60008051602061357183398151915254604051639cd07acb60e01b8152600091600080516020613551833981519152916001600160a01b0390911690639cd07acb90612ccf9087908790600401613454565b6020604051808303816000875af1158015612cee573d6000803e3d6000fd5b505050506040513d601f19601f82011682018060405250810190612be29190613468565b6000808215612d265750600160f81b612d2a565b5060005b600080516020613571833981519152546040516303056db360e31b8152600080516020613551833981519152916001600160a01b03169063182b6d9890612d7990899089908790600401613481565b6020604051808303816000875af1158015612d98573d6000803e3d6000fd5b505050506040513d601f19601f82011682018060405250810190612dbc9190613468565b9695505050505050565b6000808215612dda5750600160f81b612dde565b5060005b6000805160206135718339815191525460405163022f65e760e31b8152600080516020613551833981519152916001600160a01b03169063117b2f3890612d7990899089908790600401613481565b6000808215612e415750600160f81b612e45565b5060005b600080516020613571833981519152546040516385362ee760e01b8152600080516020613551833981519152916001600160a01b0316906385362ee790612d7990899089908790600401613481565b6000806000805160206135518339815191526001810154604051637702dcff60e01b81526004810188905260248101879052604481018690529192506001600160a01b031690637702dcff906064016020604051808303816000875af1158015612f02573d6000803e3d6000fd5b505050506040513d601f19601f82011682018060405250810190612f269190613468565b95945050505050565b6040805160018082528183019092526000805160206135518339815191529160009190602080830190803683370190505090508281600081518110612f7657612f766133b0565b60209081029190910101528154604051637d6e912360e11b81526001600160a01b039091169063fadd224690612c469084906004016134a1565b6000805160206135718339815191525460405163196d0b9b60e01b8152600091600080516020613551833981519152916001600160a01b039091169063196d0b9b906130069088903390899089906004016134e5565b6020604051808303816000875af1158015613025573d6000803e3d6000fd5b505050506040513d601f19601f820116820180604052508101906130499190613468565b8154604051630f8e573b60e21b8152600481018390523360248201529193506001600160a01b031690633e395cec90604401600060405180830381600087803b15801561309557600080fd5b505af11580156130a9573d6000803e3d6000fd5b50505050509392505050565b80356001600160a01b03811681146130cc57600080fd5b919050565b6000602082840312156130e357600080fd5b612af7826130b5565b6000602082840312156130fe57600080fd5b5035919050565b60006020828403121561311757600080fd5b813567ffffffffffffffff81168114612af757600080fd5b60006020828403121561314157600080fd5b813560ff81168114612af757600080fd5b6000806040838503121561316557600080fd5b50508035926020909101359150565b60008151808452602080850194506020840160005b838110156131ae5781516001600160a01b031687529582019590820190600101613189565b509495945050505050565b6040815260006131cc6040830185613174565b82810360208481019190915284518083528582019282019060005b81811015613203578451835293830193918301916001016131e7565b5090979650505050505050565b60008060006040848603121561322557600080fd5b83359250602084013567ffffffffffffffff8082111561324457600080fd5b818601915086601f83011261325857600080fd5b81358181111561326757600080fd5b87602082850101111561327957600080fd5b6020830194508093505050509250925092565b6000806040838503121561329f57600080fd5b6132a8836130b5565b946020939093013593505050565b634e487b7160e01b600052601160045260246000fd5b8082028115828204841417612aa857612aa86132b6565b634e487b7160e01b600052601260045260246000fd5b600082613308576133086132e3565b500490565b67ffffffffffffffff818116838216028082169190828114613331576133316132b6565b505092915050565b67ffffffffffffffff82811682821603908082111561335a5761335a6132b6565b5092915050565b606094851b6001600160601b031990811682529390941b9092166014840152602883015260f81b6001600160f81b031916604882015260490190565b81810381811115612aa857612aa86132b6565b634e487b7160e01b600052603260045260246000fd5b634e487b7160e01b600052603160045260246000fd5b634e487b7160e01b600052604160045260246000fd5b80820180821115612aa857612aa86132b6565b600082613414576134146132e3565b500690565b60006001820161342b5761342b6132b6565b5060010190565b6054811061345057634e487b7160e01b600052602160045260246000fd5b9052565b82815260408101612af76020830184613432565b60006020828403121561347a57600080fd5b5051919050565b92835260208301919091526001600160f81b031916604082015260600190565b6020808252825182820181905260009190848201906040850190845b818110156134d9578351835292840192918401916001016134bd565b50909695505050505050565b8481526000602060018060a01b038616602084015260806040840152845180608085015260005b818110156135285786810183015185820160a00152820161350c565b50600060a0828601015260a0601f19601f83011685010192505050612f26606083018461343256feed8d60e34876f751cc8b014c560745351147d9de11b9347c854e881b128ea600ed8d60e34876f751cc8b014c560745351147d9de11b9347c854e881b128ea601a264697066735822122056532be7e9337328007d7f2bc942ef630b289dc1a174deda15e0379a14c2b41664736f6c63430008180033",
  "linkReferences": {},
  "deployedLinkReferences": {}
}