{
  "_format": "hh-sol-artifact-1",
  "contractName": "LuckySpinFHE_KMS_Final",
  "sourceName": "contracts/LuckySpinFHE_KMS_Final.sol",
  "abi": [
    {
      "inputs": [],
      "stateMutability": "nonpayable",
      "type": "constructor"
    },
    {
      "anonymous": false,
      "inputs": [
        {
          "indexed": true,
          "internalType": "address",
          "name": "user",
          "type": "address"
        },
        {
          "indexed": false,
          "internalType": "uint256",
          "name": "timestamp",
          "type": "uint256"
        }
      ],
      "name": "CheckInCompleted",
      "type": "event"
    },
    {
      "anonymous": false,
      "inputs": [
        {
          "indexed": true,
          "internalType": "address",
          "name": "user",
          "type": "address"
        },
        {
          "indexed": false,
          "internalType": "uint256",
          "name": "amount",
          "type": "uint256"
        },
        {
          "indexed": false,
          "internalType": "bool",
          "name": "success",
          "type": "bool"
        }
      ],
      "name": "ClaimProcessed",
      "type": "event"
    },
    {
      "anonymous": false,
      "inputs": [
        {
          "indexed": true,
          "internalType": "address",
          "name": "user",
          "type": "address"
        },
        {
          "indexed": false,
          "internalType": "uint256",
          "name": "amount",
          "type": "uint256"
        }
      ],
      "name": "ClaimRequested",
      "type": "event"
    },
    {
      "anonymous": false,
      "inputs": [
        {
          "indexed": true,
          "internalType": "address",
          "name": "user",
          "type": "address"
        }
      ],
      "name": "ErrorChanged",
      "type": "event"
    },
    {
      "anonymous": false,
      "inputs": [
        {
          "indexed": true,
          "internalType": "address",
          "name": "user",
          "type": "address"
        },
        {
          "indexed": false,
          "internalType": "uint256",
          "name": "amount",
          "type": "uint256"
        }
      ],
      "name": "EthClaimed",
      "type": "event"
    },
    {
      "anonymous": false,
      "inputs": [
        {
          "indexed": true,
          "internalType": "address",
          "name": "user",
          "type": "address"
        },
        {
          "indexed": false,
          "internalType": "uint256",
          "name": "amount",
          "type": "uint256"
        }
      ],
      "name": "GmTokensBought",
      "type": "event"
    },
    {
      "anonymous": false,
      "inputs": [
        {
          "indexed": true,
          "internalType": "address",
          "name": "user",
          "type": "address"
        }
      ],
      "name": "GmTokensBoughtFHE",
      "type": "event"
    },
    {
      "anonymous": false,
      "inputs": [
        {
          "indexed": true,
          "internalType": "address",
          "name": "user",
          "type": "address"
        },
        {
          "indexed": false,
          "internalType": "uint256",
          "name": "score",
          "type": "uint256"
        }
      ],
      "name": "ScorePublished",
      "type": "event"
    },
    {
      "anonymous": false,
      "inputs": [
        {
          "indexed": true,
          "internalType": "address",
          "name": "user",
          "type": "address"
        }
      ],
      "name": "ScoreUnpublished",
      "type": "event"
    },
    {
      "anonymous": false,
      "inputs": [
        {
          "indexed": true,
          "internalType": "address",
          "name": "user",
          "type": "address"
        },
        {
          "indexed": false,
          "internalType": "uint256",
          "name": "newTotalScore",
          "type": "uint256"
        },
        {
          "indexed": false,
          "internalType": "uint256",
          "name": "delta",
          "type": "uint256"
        }
      ],
      "name": "ScoreUpdated",
      "type": "event"
    },
    {
      "anonymous": false,
      "inputs": [
        {
          "indexed": true,
          "internalType": "address",
          "name": "user",
          "type": "address"
        },
        {
          "indexed": false,
          "internalType": "uint64",
          "name": "count",
          "type": "uint64"
        }
      ],
      "name": "SpinBoughtWithGm",
      "type": "event"
    },
    {
      "anonymous": false,
      "inputs": [
        {
          "indexed": true,
          "internalType": "address",
          "name": "user",
          "type": "address"
        },
        {
          "indexed": false,
          "internalType": "string",
          "name": "result",
          "type": "string"
        }
      ],
      "name": "SpinCompleted",
      "type": "event"
    },
    {
      "anonymous": false,
      "inputs": [
        {
          "indexed": true,
          "internalType": "address",
          "name": "user",
          "type": "address"
        },
        {
          "indexed": false,
          "internalType": "uint8",
          "name": "slot",
          "type": "uint8"
        },
        {
          "indexed": false,
          "internalType": "uint256",
          "name": "prizeWei",
          "type": "uint256"
        },
        {
          "indexed": false,
          "internalType": "uint64",
          "name": "gmDelta",
          "type": "uint64"
        }
      ],
      "name": "SpinOutcome",
      "type": "event"
    },
    {
      "anonymous": false,
      "inputs": [
        {
          "indexed": true,
          "internalType": "address",
          "name": "user",
          "type": "address"
        },
        {
          "indexed": false,
          "internalType": "uint256",
          "name": "version",
          "type": "uint256"
        }
      ],
      "name": "UserStateChanged",
      "type": "event"
    },
    {
      "inputs": [],
      "name": "GM_TOKEN_RATE",
      "outputs": [
        {
          "internalType": "uint256",
          "name": "",
          "type": "uint256"
        }
      ],
      "stateMutability": "view",
      "type": "function"
    },
    {
      "inputs": [],
      "name": "SECONDS_PER_DAY",
      "outputs": [
        {
          "internalType": "uint256",
          "name": "",
          "type": "uint256"
        }
      ],
      "stateMutability": "view",
      "type": "function"
    },
    {
      "inputs": [],
      "name": "buyGmTokens",
      "outputs": [],
      "stateMutability": "payable",
      "type": "function"
    },
    {
      "inputs": [
        {
          "internalType": "externalEuint64",
          "name": "encryptedAmount",
          "type": "bytes32"
        },
        {
          "internalType": "bytes",
          "name": "proof",
          "type": "bytes"
        }
      ],
      "name": "buyGmTokensFHE",
      "outputs": [],
      "stateMutability": "payable",
      "type": "function"
    },
    {
      "inputs": [],
      "name": "buySpinWithGm",
      "outputs": [],
      "stateMutability": "nonpayable",
      "type": "function"
    },
    {
      "inputs": [
        {
          "internalType": "uint64",
          "name": "count",
          "type": "uint64"
        }
      ],
      "name": "buySpinWithGmBatch",
      "outputs": [],
      "stateMutability": "nonpayable",
      "type": "function"
    },
    {
      "inputs": [],
      "name": "checkIn",
      "outputs": [],
      "stateMutability": "nonpayable",
      "type": "function"
    },
    {
      "inputs": [
        {
          "internalType": "address",
          "name": "",
          "type": "address"
        }
      ],
      "name": "claimRequestAmount",
      "outputs": [
        {
          "internalType": "uint256",
          "name": "",
          "type": "uint256"
        }
      ],
      "stateMutability": "view",
      "type": "function"
    },
    {
      "inputs": [
        {
          "internalType": "address",
          "name": "",
          "type": "address"
        }
      ],
      "name": "claimRequestTimestamp",
      "outputs": [
        {
          "internalType": "uint256",
          "name": "",
          "type": "uint256"
        }
      ],
      "stateMutability": "view",
      "type": "function"
    },
    {
      "inputs": [],
      "name": "dailyGm",
      "outputs": [],
      "stateMutability": "nonpayable",
      "type": "function"
    },
    {
      "inputs": [],
      "name": "emergencyWithdraw",
      "outputs": [],
      "stateMutability": "nonpayable",
      "type": "function"
    },
    {
      "inputs": [
        {
          "internalType": "address",
          "name": "user",
          "type": "address"
        }
      ],
      "name": "getClaimRequest",
      "outputs": [
        {
          "internalType": "uint256",
          "name": "amount",
          "type": "uint256"
        },
        {
          "internalType": "uint256",
          "name": "timestamp",
          "type": "uint256"
        }
      ],
      "stateMutability": "view",
      "type": "function"
    },
    {
      "inputs": [],
      "name": "getContractBalance",
      "outputs": [
        {
          "internalType": "uint256",
          "name": "",
          "type": "uint256"
        }
      ],
      "stateMutability": "view",
      "type": "function"
    },
    {
      "inputs": [
        {
          "internalType": "address",
          "name": "user",
          "type": "address"
        }
      ],
      "name": "getEncryptedLastSlot",
      "outputs": [
        {
          "internalType": "euint64",
          "name": "",
          "type": "bytes32"
        }
      ],
      "stateMutability": "view",
      "type": "function"
    },
    {
      "inputs": [
        {
          "internalType": "address",
          "name": "user",
          "type": "address"
        }
      ],
      "name": "getEncryptedPendingEthWei",
      "outputs": [
        {
          "internalType": "euint64",
          "name": "",
          "type": "bytes32"
        }
      ],
      "stateMutability": "view",
      "type": "function"
    },
    {
      "inputs": [
        {
          "internalType": "address",
          "name": "user",
          "type": "address"
        }
      ],
      "name": "getEncryptedScore",
      "outputs": [
        {
          "internalType": "euint64",
          "name": "",
          "type": "bytes32"
        }
      ],
      "stateMutability": "view",
      "type": "function"
    },
    {
      "inputs": [
        {
          "internalType": "address",
          "name": "user",
          "type": "address"
        }
      ],
      "name": "getEncryptedUserBundle",
      "outputs": [
        {
          "internalType": "euint64",
          "name": "spins",
          "type": "bytes32"
        },
        {
          "internalType": "euint64",
          "name": "gm",
          "type": "bytes32"
        },
        {
          "internalType": "euint64",
          "name": "pendingEthWei",
          "type": "bytes32"
        },
        {
          "internalType": "euint64",
          "name": "lastSlot",
          "type": "bytes32"
        },
        {
          "internalType": "euint64",
          "name": "score",
          "type": "bytes32"
        }
      ],
      "stateMutability": "view",
      "type": "function"
    },
    {
      "inputs": [
        {
          "internalType": "address",
          "name": "user",
          "type": "address"
        }
      ],
      "name": "getLastError",
      "outputs": [
        {
          "internalType": "euint8",
          "name": "code",
          "type": "bytes32"
        },
        {
          "internalType": "uint256",
          "name": "timestamp",
          "type": "uint256"
        }
      ],
      "stateMutability": "view",
      "type": "function"
    },
    {
      "inputs": [
        {
          "internalType": "address",
          "name": "user",
          "type": "address"
        }
      ],
      "name": "getPublicScore",
      "outputs": [
        {
          "internalType": "uint256",
          "name": "",
          "type": "uint256"
        }
      ],
      "stateMutability": "view",
      "type": "function"
    },
    {
      "inputs": [
        {
          "internalType": "uint256",
          "name": "offset",
          "type": "uint256"
        },
        {
          "internalType": "uint256",
          "name": "limit",
          "type": "uint256"
        }
      ],
      "name": "getPublishedRange",
      "outputs": [
        {
          "internalType": "address[]",
          "name": "addrs",
          "type": "address[]"
        },
        {
          "internalType": "uint256[]",
          "name": "scores",
          "type": "uint256[]"
        }
      ],
      "stateMutability": "view",
      "type": "function"
    },
    {
      "inputs": [
        {
          "internalType": "address",
          "name": "user",
          "type": "address"
        }
      ],
      "name": "getUserGmBalance",
      "outputs": [
        {
          "internalType": "euint64",
          "name": "",
          "type": "bytes32"
        }
      ],
      "stateMutability": "view",
      "type": "function"
    },
    {
      "inputs": [
        {
          "internalType": "address",
          "name": "user",
          "type": "address"
        }
      ],
      "name": "getUserRewards",
      "outputs": [
        {
          "internalType": "euint256",
          "name": "",
          "type": "bytes32"
        }
      ],
      "stateMutability": "view",
      "type": "function"
    },
    {
      "inputs": [
        {
          "internalType": "address",
          "name": "user",
          "type": "address"
        }
      ],
      "name": "getUserSpins",
      "outputs": [
        {
          "internalType": "euint64",
          "name": "",
          "type": "bytes32"
        }
      ],
      "stateMutability": "view",
      "type": "function"
    },
    {
      "inputs": [
        {
          "internalType": "address",
          "name": "user",
          "type": "address"
        }
      ],
      "name": "hasPendingClaim",
      "outputs": [
        {
          "internalType": "bool",
          "name": "",
          "type": "bool"
        }
      ],
      "stateMutability": "view",
      "type": "function"
    },
    {
      "inputs": [
        {
          "internalType": "address",
          "name": "user",
          "type": "address"
        }
      ],
      "name": "isScorePublished",
      "outputs": [
        {
          "internalType": "bool",
          "name": "",
          "type": "bool"
        }
      ],
      "stateMutability": "view",
      "type": "function"
    },
    {
      "inputs": [
        {
          "internalType": "address",
          "name": "",
          "type": "address"
        }
      ],
      "name": "lastCheckInDay",
      "outputs": [
        {
          "internalType": "uint256",
          "name": "",
          "type": "uint256"
        }
      ],
      "stateMutability": "view",
      "type": "function"
    },
    {
      "inputs": [
        {
          "internalType": "address",
          "name": "",
          "type": "address"
        }
      ],
      "name": "lastCheckInTime",
      "outputs": [
        {
          "internalType": "uint256",
          "name": "",
          "type": "uint256"
        }
      ],
      "stateMutability": "view",
      "type": "function"
    },
    {
      "inputs": [
        {
          "internalType": "address",
          "name": "",
          "type": "address"
        }
      ],
      "name": "lastOutcomeCommit",
      "outputs": [
        {
          "internalType": "bytes32",
          "name": "",
          "type": "bytes32"
        }
      ],
      "stateMutability": "view",
      "type": "function"
    },
    {
      "inputs": [
        {
          "internalType": "address",
          "name": "",
          "type": "address"
        }
      ],
      "name": "lastOutcomeNonce",
      "outputs": [
        {
          "internalType": "uint256",
          "name": "",
          "type": "uint256"
        }
      ],
      "stateMutability": "view",
      "type": "function"
    },
    {
      "inputs": [
        {
          "internalType": "address",
          "name": "user",
          "type": "address"
        },
        {
          "internalType": "uint256",
          "name": "amountWei",
          "type": "uint256"
        }
      ],
      "name": "onClaimDecrypted",
      "outputs": [],
      "stateMutability": "nonpayable",
      "type": "function"
    },
    {
      "inputs": [],
      "name": "owner",
      "outputs": [
        {
          "internalType": "address",
          "name": "",
          "type": "address"
        }
      ],
      "stateMutability": "view",
      "type": "function"
    },
    {
      "inputs": [
        {
          "internalType": "address",
          "name": "",
          "type": "address"
        }
      ],
      "name": "pendingClaimRequests",
      "outputs": [
        {
          "internalType": "bool",
          "name": "",
          "type": "bool"
        }
      ],
      "stateMutability": "view",
      "type": "function"
    },
    {
      "inputs": [
        {
          "internalType": "address",
          "name": "",
          "type": "address"
        }
      ],
      "name": "pendingSettlement",
      "outputs": [
        {
          "internalType": "bool",
          "name": "",
          "type": "bool"
        }
      ],
      "stateMutability": "view",
      "type": "function"
    },
    {
      "inputs": [
        {
          "internalType": "euint64",
          "name": "score",
          "type": "bytes32"
        }
      ],
      "name": "publishScore",
      "outputs": [],
      "stateMutability": "nonpayable",
      "type": "function"
    },
    {
      "inputs": [],
      "name": "reinit",
      "outputs": [],
      "stateMutability": "nonpayable",
      "type": "function"
    },
    {
      "inputs": [
        {
          "internalType": "uint256",
          "name": "amountWei",
          "type": "uint256"
        }
      ],
      "name": "requestClaimETH",
      "outputs": [],
      "stateMutability": "nonpayable",
      "type": "function"
    },
    {
      "inputs": [
        {
          "internalType": "uint8",
          "name": "slot",
          "type": "uint8"
        }
      ],
      "name": "settlePrize",
      "outputs": [],
      "stateMutability": "nonpayable",
      "type": "function"
    },
    {
      "inputs": [],
      "name": "spin",
      "outputs": [],
      "stateMutability": "nonpayable",
      "type": "function"
    },
    {
      "inputs": [],
      "name": "spinLite",
      "outputs": [],
      "stateMutability": "nonpayable",
      "type": "function"
    },
    {
      "inputs": [
        {
          "internalType": "address",
          "name": "",
          "type": "address"
        }
      ],
      "name": "spinNonce",
      "outputs": [
        {
          "internalType": "uint256",
          "name": "",
          "type": "uint256"
        }
      ],
      "stateMutability": "view",
      "type": "function"
    },
    {
      "inputs": [
        {
          "internalType": "address",
          "name": "",
          "type": "address"
        }
      ],
      "name": "stateVersion",
      "outputs": [
        {
          "internalType": "uint256",
          "name": "",
          "type": "uint256"
        }
      ],
      "stateMutability": "view",
      "type": "function"
    },
    {
      "inputs": [],
      "name": "unpublishScore",
      "outputs": [],
      "stateMutability": "nonpayable",
      "type": "function"
    },
    {
      "inputs": [],
      "name": "withdrawAllPendingETH",
      "outputs": [],
      "stateMutability": "nonpayable",
      "type": "function"
    },
    {
      "inputs": [
        {
          "internalType": "uint256",
          "name": "amountWei",
          "type": "uint256"
        }
      ],
      "name": "withdrawPendingETH",
      "outputs": [],
      "stateMutability": "nonpayable",
      "type": "function"
    },
    {
      "stateMutability": "payable",
      "type": "receive"
    }
  ],
  "bytecode": "0x608060405234801561001057600080fd5b5061018c6100b0604080516080810182526000808252602082018190529181018290526060810191909152506040805160808101825273687820221192c5b662b25367f70076a37bc79b6c815273848b0066793bcc60346da1f49049357399b8d5956020820152731364cbbf2cdf5032c47d8226a6f6fbd2afcdacac9181019190915273bc91f3dad1a5f19f8390c400196e58073b6a0bc4606082015290565b80517fed8d60e34876f751cc8b014c560745351147d9de11b9347c854e881b128ea60080546001600160a01b03199081166001600160a01b039384161790915560208301517fed8d60e34876f751cc8b014c560745351147d9de11b9347c854e881b128ea6018054831691841691909117905560408301517fed8d60e34876f751cc8b014c560745351147d9de11b9347c854e881b128ea6028054831691841691909117905560608301517fed8d60e34876f751cc8b014c560745351147d9de11b9347c854e881b128ea6038054909216921691909117905550565b7f5ea69329017273582817d320489fbd94f775580e90c092699ca6f3d12fdf7d0080546001600160a01b0319167333347831500f1e73f0cccbb95c9f86b94d7b1123179055600a80546001600160a01b031916331790556132a4806101f26000396000f3fe60806040526004361061026b5760003560e01c806375f3619711610144578063c6ed0441116100b6578063db2e21bc1161007a578063db2e21bc146108d0578063df426b10146108e5578063e52e91441461091b578063e644924b1461093b578063ee581d7c14610974578063f0acd7d51461099457600080fd5b8063c6ed044114610808578063caf0ca471461081d578063cf1ae5b114610870578063cf94ba0f14610890578063d6784754146108a357600080fd5b806394453fae1161010857806394453fae146106fc578063a72c6b2214610729578063ae0ce37014610757578063c482ceaf1461078d578063c483da22146107a2578063c6a59d67146107cf57600080fd5b806375f36197146106435780637ed00b2d146106795780638489302e1461068e5780638d96e6891461032a5780638da5cb5b146106c457600080fd5b8063328c81a3116101dd578063638b709a116101a1578063638b709a1461058b57806366fbe733146105c15780636bb92a82146105d65780636f9fb98a146105ec5780637224b747146105ff57806374f0314f1461062c57600080fd5b8063328c81a314610477578063426120cd146104a45780634509e981146104c457806348890515146104d95780634efaca651461050657600080fd5b806319a902651161022f57806319a902651461033f57806324a13fc01461036c57806324a573ca1461039957806324cfbaa6146103cf5780632fed4184146104275780633136a3b91461045757600080fd5b8063078b0fb71461027757806307c77ccb146102c05780630de60b2a1461030057806311df504514610322578063183ff0851461032a57600080fd5b3661027257005b600080fd5b34801561028357600080fd5b506102ad610292366004612e0b565b6001600160a01b031660009081526002602052604090205490565b6040519081526020015b60405180910390f35b3480156102cc57600080fd5b506102f06102db366004612e0b565b600b6020526000908152604090205460ff1681565b60405190151581526020016102b7565b34801561030c57600080fd5b5061032061031b366004612e26565b6109a9565b005b610320610b02565b34801561033657600080fd5b50610320610c10565b34801561034b57600080fd5b506102ad61035a366004612e0b565b60066020526000908152604090205481565b34801561037857600080fd5b506102ad610387366004612e0b565b60196020526000908152604090205481565b3480156103a557600080fd5b506102ad6103b4366004612e0b565b6001600160a01b031660009081526003602052604090205490565b3480156103db57600080fd5b506104126103ea366004612e0b565b6001600160a01b03166000908152600c6020908152604080832054600d909252909120549091565b604080519283526020830191909152016102b7565b34801561043357600080fd5b506102f0610442366004612e0b565b601a6020526000908152604090205460ff1681565b34801561046357600080fd5b50610320610472366004612e3f565b610d9b565b34801561048357600080fd5b506102ad610492366004612e0b565b60096020526000908152604090205481565b3480156104b057600080fd5b506103206104bf366004612e69565b610f41565b3480156104d057600080fd5b50610320611357565b3480156104e557600080fd5b506102ad6104f4366004612e0b565b60176020526000908152604090205481565b34801561051257600080fd5b50610563610521366004612e0b565b6001600160a01b031660009081526020818152604080832054600183528184205460058452828520546004855283862054600390955292909420549094919291565b604080519586526020860194909452928401919091526060830152608082015260a0016102b7565b34801561059757600080fd5b506102ad6105a6366004612e0b565b6001600160a01b031660009081526020819052604090205490565b3480156105cd57600080fd5b506103206113a5565b3480156105e257600080fd5b506102ad6103e881565b3480156105f857600080fd5b50476102ad565b34801561060b57600080fd5b506102ad61061a366004612e0b565b600d6020526000908152604090205481565b34801561063857600080fd5b506102ad6201518081565b34801561064f57600080fd5b506102ad61065e366004612e0b565b6001600160a01b031660009081526005602052604090205490565b34801561068557600080fd5b50610320611513565b34801561069a57600080fd5b506102ad6106a9366004612e0b565b6001600160a01b031660009081526004602052604090205490565b3480156106d057600080fd5b50600a546106e4906001600160a01b031681565b6040516001600160a01b0390911681526020016102b7565b34801561070857600080fd5b506102ad610717366004612e0b565b60186020526000908152604090205481565b34801561073557600080fd5b50610749610744366004612e8c565b61166a565b6040516102b7929190612eae565b34801561076357600080fd5b506102ad610772366004612e0b565b6001600160a01b031660009081526013602052604090205490565b34801561079957600080fd5b5061032061181d565b3480156107ae57600080fd5b506102ad6107bd366004612e0b565b60076020526000908152604090205481565b3480156107db57600080fd5b506102f06107ea366004612e0b565b6001600160a01b031660009081526014602052604090205460ff1690565b34801561081457600080fd5b5061032061192c565b34801561082957600080fd5b50610412610838366004612e0b565b6001600160a01b03166000908152600e6020908152604091829020825180840190935280548084526001909101549290910182905291565b34801561087c57600080fd5b5061032061088b366004612e26565b611c78565b61032061089e366004612f32565b611de0565b3480156108af57600080fd5b506102ad6108be366004612e0b565b600c6020526000908152604090205481565b3480156108dc57600080fd5b50610320611eb2565b3480156108f157600080fd5b506102ad610900366004612e0b565b6001600160a01b031660009081526001602052604090205490565b34801561092757600080fd5b50610320610936366004612e26565b611f35565b34801561094757600080fd5b506102f0610956366004612e0b565b6001600160a01b03166000908152600b602052604090205460ff1690565b34801561098057600080fd5b5061032061098f366004612fae565b612005565b3480156109a057600080fd5b506103206122c3565b6109b233612665565b600081116109fc5760405162461bcd60e51b81526020600482015260126024820152710416d6f756e74206d757374206265203e20360741b60448201526064015b60405180910390fd5b33600090815260056020526040902054610a159061284c565b5033600081815260056020526040902054610a2f9161285c565b503360009081526005602052604081205490610a4a83612871565b90506000610a588383612888565b3360009081526005602052604090208190559050610a758161284c565b5033600081815260056020526040902054610a8f9161285c565b50604051339085156108fc029086906000818181858888f19350505050158015610abd573d6000803e3d6000fd5b5060405184815233907f0d7976053781e071cecf47e898ad2a6dc87621ca33734e96eb4b92453319e8c99060200160405180910390a2610afc336128c1565b50505050565b610b0b33612665565b60003411610b4b5760405162461bcd60e51b815260206004820152600d60248201526c09aeae6e840e6cadcc8408aa89609b1b60448201526064016109f3565b6000670de0b6b3a7640000610b626103e834612fee565b610b6c919061301b565b90506000610b7982612871565b33600090815260016020526040902054909150610b968183612934565b336000908152600160205260409020819055610bb19061284c565b5033600081815260016020526040902054610bcb9161285c565b5060405183815233907f2df747ea49445e73b60e268d884585144855c4f022c8d6c7aad44708a9c83b22906020015b60405180910390a2610c0b336128c1565b505050565b610c1933612665565b6000610c28620151804261301b565b33600090815260076020526040902054909150811180610ca0576040805180820182526011548152426020808301918252336000818152600e90925284822093518455915160019093019290925591517f9c458d4af2e97b032bd1b235a5af0367e4aa9e385b6b4a8ba12d83ee8804659e9190a25050565b3360009081526007602090815260408083208590556006825280832042905590829052902054610cd981610cd46001612871565b612934565b336000908152602081905260409020819055610cf49061284c565b5033600081815260208190526040902054610d0e9161285c565b50604080518082018252600f548152426020808301918252336000818152600e90925284822093518455915160019093019290925591517f9c458d4af2e97b032bd1b235a5af0367e4aa9e385b6b4a8ba12d83ee8804659e9190a260405142815233907f81a25468fabedbbaa9179ae90960445ca6426a7aeae439b462bb74f0a89ab37590602001610bfa565b610da433612665565b60008167ffffffffffffffff16118015610dc9575060328167ffffffffffffffff1611155b610e055760405162461bcd60e51b815260206004820152600d60248201526c1a5b9d985b1a590818dbdd5b9d609a1b60448201526064016109f3565b3360009081526001602052604081205490610e2183600a61302f565b90506000610e4183610e3c610e3760018661305b565b612871565b612966565b9050610e5f81610e5985610e5486612871565b612888565b85612998565b336000908152600160205260409020819055610e7a9061284c565b5033600081815260016020526040902054610e949161285c565b5033600090815260208190526040902054610ebc82610eb683610cd489612871565b83612998565b336000908152602081905260409020819055610ed79061284c565b5033600081815260208190526040902054610ef19161285c565b5060405167ffffffffffffffff8616815233907f613edc44c859ae57f4e2745ce37ddc4990be3f919e697b4dd07a5205f81b88b29060200160405180910390a2610f3a336128c1565b5050505050565b610f4a33612665565b336000908152601a602052604090205460ff16610f9c5760405162461bcd60e51b815260206004820152601060248201526f4e6f2070656e64696e67207072697a6560801b60448201526064016109f3565b3360008181526019602090815260408083205490519093610fc39230928691889101613083565b60408051601f1981840301815291815281516020928301203360009081526018909352912054909150811461102f5760405162461bcd60e51b8152602060048201526012602482015271125b9d985b1a59081cd95d1d1b195b595b9d60721b60448201526064016109f3565b8260ff166000036110cf57336000908152600560205260409020546110539061284c565b503360008181526005602052604090205461106d9161285c565b503360009081526005602052604090205461109381610cd467016345785d8a0000612871565b3360009081526005602052604090208190556110ae9061284c565b50336000818152600560205260409020546110c89161285c565b50506112b6565b8260ff1660010361113257336000908152600560205260409020546110f39061284c565b503360008181526005602052604090205461110d9161285c565b503360009081526005602052604090205461109381610cd4662386f26fc10000612871565b8260ff166005036111c457336000908152600160205260409020546111569061284c565b50336000818152600160205260409020546111709161285c565b503360009081526001602052604090205461118f81610cd46005612871565b3360009081526001602052604090208190556111aa9061284c565b50336000818152600160205260409020546110c89161285c565b8260ff1660060361122157336000908152600160205260409020546111e89061284c565b50336000818152600160205260409020546112029161285c565b503360009081526001602052604090205461118f81610cd4600f612871565b8260ff166007036112b657336000908152600160205260409020546112459061284c565b503360008181526001602052604090205461125f9161285c565b503360009081526001602052604090205461127e81610cd4601e612871565b3360009081526001602052604090208190556112999061284c565b50336000818152600160205260409020546112b39161285c565b50505b336000908152600460205260409020546112cf9061284c565b50336000818152600460205260409020546112e99161285c565b506112f68360ff16612871565b3360009081526004602052604090208190556113119061284c565b503360008181526004602052604090205461132b9161285c565b50336000818152601a60209081526040808320805460ff191690556018909152812055610c0b906128c1565b60405163cf1ae5b160e01b81526000196004820152309063cf1ae5b190602401600060405180830381600087803b15801561139157600080fd5b505af1158015610afc573d6000803e3d6000fd5b6113ae33612665565b33600090815260016020526040812054906113cd82610e3c6009612871565b90506113e7816113e184610e54600a612871565b84612998565b3360009081526001602052604090208190556114029061284c565b503360008181526001602052604090205461141c9161285c565b503360009081526020819052604090205461143f82610eb683610cd46001612871565b33600090815260208190526040902081905561145a9061284c565b50336000818152602081905260409020546114749161285c565b50604051806040016040528061148f84600f54601054612998565b815242602091820152336000818152600e83526040808220855181559490930151600190940193909355905190917f9c458d4af2e97b032bd1b235a5af0367e4aa9e385b6b4a8ba12d83ee8804659e91a26040516001815233907f613edc44c859ae57f4e2745ce37ddc4990be3f919e697b4dd07a5205f81b88b290602001610bfa565b3360009081526014602052604090205460ff1661152c57565b336000908152601460209081526040808320805460ff19169055601382528083208390556016909152902054801561163c576015548181146115f757600060156115776001846130bf565b81548110611587576115876130d2565b6000918252602090912001546001600160a01b031690508060156115ac6001866130bf565b815481106115bc576115bc6130d2565b600091825260208083209190910180546001600160a01b0319166001600160a01b039485161790559290911681526016909152604090208290555b6015805480611608576116086130e8565b60008281526020808220830160001990810180546001600160a01b0319169055909201909255338252601690526040812055505b60405133907f1c6b0c6e774ba78fff6fe943c64e4e530cb52e0ddf625dd35cb80a0f2bd150a090600090a250565b6015546060908190808510611698575050604080516000808252602082019081528183019092529150611816565b60006116a48587613114565b9050818111156116b15750805b60006116bd87836130bf565b90508067ffffffffffffffff8111156116d8576116d86130fe565b604051908082528060200260200182016040528015611701578160200160208202803683370190505b5094508067ffffffffffffffff81111561171d5761171d6130fe565b604051908082528060200260200182016040528015611746578160200160208202803683370190505b50935060005b818110156118115760006015611762838b613114565b81548110611772576117726130d2565b9060005260206000200160009054906101000a90046001600160a01b03169050808783815181106117a5576117a56130d2565b60200260200101906001600160a01b031690816001600160a01b03168152505060136000826001600160a01b03166001600160a01b03168152602001908152602001600020548683815181106117fd576117fd6130d2565b60209081029190910101525060010161174c565b505050505b9250929050565b336000908152600160205260409020546118369061284c565b50336000818152600160205260409020546118509161285c565b503360009081526020819052604090205461186a9061284c565b50336000818152602081905260409020546118849161285c565b503360009081526003602052604090205461189e9061284c565b50336000818152600360205260409020546118b89161285c565b50336000908152600460205260409020546118d29061284c565b50336000818152600460205260409020546118ec9161285c565b50336000908152600560205260409020546119069061284c565b50336000818152600560205260409020546119209161285c565b5061192a336128c1565b565b61193533612665565b3360009081526020819052604090205461194e9061284c565b50336000818152602081905260409020546119689161285c565b50336000908152602081905260408120549061198782610e3c83612871565b905061199b816113e184610e546001612871565b3360009081526020819052604090208190556119b69061284c565b50336000818152602081905260409020546119d09161285c565b50600044423343604051602001611a0d9493929190938452602084019290925260601b6001600160601b0319166040830152605482015260740190565b60408051601f1981840301815291905280516020909101209050600080611a35606484613127565b90506001811015611a495760009150611a73565b60006007611a5860648661301b565b611a629190613127565b9050611a6f816001613114565b9250505b600082600514611aa25782600614611a9b5782600714611a94576000611aa5565b601e611aa5565b600f611aa5565b60055b6040805160ff86811682526000602083015292909216908201819052915033907f5c45296401ff630a9654379c00459a908687b562d88c8999c349cb22894b6fcb9060600160405180910390a2336001600160a01b03167ff5e3f4fb3e1b45909c1ea49137114634cea181228f751e1754e5ef8365a165bc604051611b4c906020808252600e908201526d14dc1a5b8818dbdb5c1b195d195960921b604082015260600190565b60405180910390a26124cd88610e546001612871565b3360009081526020819052604090208190556124e89061284c565b50336000818152602081905260409020546125029161285c565b50336000818152601760209081526040808320549051909361252a92309286918a9101613083565b60408051601f1981840301815291815281516020928301203360009081526018845282812082905560198452828120869055601a9093529120805460ff1916600190811790915590915061257f908390613114565b336000908152601760209081526040808320939093556003905220546125a49061284c565b50336000818152600360205260409020546125be9161285c565b50336000908152600360205260409020546125dd81610cd46064612871565b3360009081526003602052604090208190556125f89061284c565b50336000818152600360205260409020546126129161285c565b5060408051600081526064602082015233917f91878448ef87c3db4aeb83e60e7deb1240ecae3fd04975ec93547398514cb4ed910160405180910390a2612658336128c1565b5050505050505050505050565b6001600160a01b03811660009081526008602052604090205460ff16156126895750565b6126936000612871565b6001600160a01b03821660009081526001602052604090208190556126b79061284c565b506001600160a01b0381166000908152600160205260409020546126db908261285c565b506126e66000612871565b6001600160a01b038216600090815260208190526040902081905561270a9061284c565b506001600160a01b03811660009081526020819052604090205461272e908261285c565b506127396000612871565b6001600160a01b038216600090815260036020526040902081905561275d9061284c565b506001600160a01b038116600090815260036020526040902054612781908261285c565b5061278c6000612871565b6001600160a01b03821660009081526004602052604090208190556127b09061284c565b506001600160a01b0381166000908152600460205260409020546127d4908261285c565b506127df6000612871565b6001600160a01b03821660009081526005602052604090208190556128039061284c565b506001600160a01b038116600090815260056020526040902054612827908261285c565b506001600160a01b03166000908152600860205260409020805460ff19166001179055565b600061285882306129bb565b5090565b600061286883836129bb565b50815b92915050565b600061286b8267ffffffffffffffff166005612a38565b60008261289c576128996000612871565b92505b816128ae576128ab6000612871565b91505b6128ba83836000612acd565b9392505050565b6001600160a01b03811660009081526009602052604081208054916128e58361313b565b90915550506001600160a01b0381166000818152600960209081526040918290205491519182527faab469e68c1a9950d09bf98d5dbd05ceb4e8e5d3fc891afa9be48ff1911ad4a39101611ffa565b600082612948576129456000612871565b92505b8161295a576129576000612871565b91505b6128ba83836000612b81565b60008261297a576129776000612871565b92505b8161298c576129896000612871565b91505b6128ba83836000612be8565b60006129a5848484612c4f565b949350505050565b60006128ba83836005612cea565b600060008051602061322f8339815191528054604051635ca4b5b160e11b8152600481018690526001600160a01b03858116602483015292935091169063b9496b6290604401600060405180830381600087803b158015612a1b57600080fd5b505af1158015612a2f573d6000803e3d6000fd5b50505050505050565b60008051602061324f83398151915254604051639cd07acb60e01b815260009160008051602061322f833981519152916001600160a01b0390911690639cd07acb90612a8a9087908790600401613176565b6020604051808303816000875af1158015612aa9573d6000803e3d6000fd5b505050506040513d601f19601f820116820180604052508101906129a5919061318a565b6000808215612ae15750600160f81b612ae5565b5060005b60008051602061324f833981519152546040516303056db360e31b815260008051602061322f833981519152916001600160a01b03169063182b6d9890612b34908990899087906004016131a3565b6020604051808303816000875af1158015612b53573d6000803e3d6000fd5b505050506040513d601f19601f82011682018060405250810190612b77919061318a565b9695505050505050565b6000808215612b955750600160f81b612b99565b5060005b60008051602061324f8339815191525460405163022f65e760e31b815260008051602061322f833981519152916001600160a01b03169063117b2f3890612b34908990899087906004016131a3565b6000808215612bfc5750600160f81b612c00565b5060005b60008051602061324f833981519152546040516385362ee760e01b815260008051602061322f833981519152916001600160a01b0316906385362ee790612b34908990899087906004016131a3565b60008060008051602061322f8339815191526001810154604051637702dcff60e01b81526004810188905260248101879052604481018690529192506001600160a01b031690637702dcff906064016020604051808303816000875af1158015612cbd573d6000803e3d6000fd5b505050506040513d601f19601f82011682018060405250810190612ce1919061318a565b95945050505050565b60008051602061324f8339815191525460405163196d0b9b60e01b815260009160008051602061322f833981519152916001600160a01b039091169063196d0b9b90612d409088903390899089906004016131c3565b6020604051808303816000875af1158015612d5f573d6000803e3d6000fd5b505050506040513d601f19601f82011682018060405250810190612d83919061318a565b8154604051630f8e573b60e21b8152600481018390523360248201529193506001600160a01b031690633e395cec90604401600060405180830381600087803b158015612dcf57600080fd5b505af1158015612de3573d6000803e3d6000fd5b50505050509392505050565b80356001600160a01b0381168114612e0657600080fd5b919050565b600060208284031215612e1d57600080fd5b6128ba82612def565b600060208284031215612e3857600080fd5b5035919050565b600060208284031215612e5157600080fd5b813567ffffffffffffffff811681146128ba57600080fd5b600060208284031215612e7b57600080fd5b813560ff811681146128ba57600080fd5b60008060408385031215612e9f57600080fd5b50508035926020909101359150565b604080825283519082018190526000906020906060840190828701845b82811015612ef05781516001600160a01b031684529284019290840190600101612ecb565b5050508381038285015284518082528583019183019060005b81811015612f2557835183529284019291840191600101612f09565b5090979650505050505050565b600080600060408486031215612f4757600080fd5b83359250602084013567ffffffffffffffff80821115612f6657600080fd5b818601915086601f830112612f7a57600080fd5b813581811115612f8957600080fd5b876020828501011115612f9b57600080fd5b6020830194508093505050509250925092565b60008060408385031215612fc157600080fd5b612fca83612def565b946020939093013593505050565b634e487b7160e01b600052601160045260246000fd5b808202811582820484141761286b5761286b612fd8565b634e487b7160e01b600052601260045260246000fd5b67ffffffffffffffff81811683821602808216919082811461305357613053612fd8565b505092915050565b67ffffffffffffffff82811682821603908082111561307c5761307c612fd8565b5092915050565b606094851b6001600160601b031990811682529390941b9092166014840152602883015260f81b6001600160f81b031916604882015260490190565b8181038181111561286b5761286b612fd8565b634e487b7160e01b600052603260045260246000fd5b634e487b7160e01b600052603160045260246000fd5b634e487b7160e01b600052604160045260246000fd5b8082018082111561286b5761286b612fd8565b60008261313657613136613005565b500690565b60006001820161314d5761314d612fd8565b5060010190565b6054811061317257634e487b7160e01b600052602160045260246000fd5b9052565b828152604081016128ba6020830184613154565b60006020828403121561319c57600080fd5b5051919050565b92835260208301919091526001600160f81b031916604082015260600190565b8481526000602060018060a01b038616602084015260806040840152845180608085015260005b818110156132065786810183015185820160a0015282016131ea565b50600060a0828601015260a0601f19601f83011685010192505050612ce1606083018461315456feed8d60e34876f751cc8b014c560745351147d9de11b9347c854e881b128ea600ed8d60e34876f751cc8b014c560745351147d9de11b9347c854e881b128ea601a26469706673582212207b83ccdc917e7b4c432f4054a5e6b052a1ce3868b78796fd710cbe5c2cc911ab64736f6c63430008180033",
  "deployedBytecode": "0x60806040526004361061026b5760003560e01c806375f3619711610144578063c6ed0441116100b6578063db2e21bc1161007a578063db2e21bc146108d0578063df426b10146108e5578063e52e91441461091b578063e644924b1461093b578063ee581d7c14610974578063f0acd7d51461099457600080fd5b8063c6ed044114610808578063caf0ca471461081d578063cf1ae5b114610870578063cf94ba0f14610890578063d6784754146108a357600080fd5b806394453fae1161010857806394453fae146106fc578063a72c6b2214610729578063ae0ce37014610757578063c482ceaf1461078d578063c483da22146107a2578063c6a59d67146107cf57600080fd5b806375f36197146106435780637ed00b2d146106795780638489302e1461068e5780638d96e6891461032a5780638da5cb5b146106c457600080fd5b8063328c81a3116101dd578063638b709a116101a1578063638b709a1461058b57806366fbe733146105c15780636bb92a82146105d65780636f9fb98a146105ec5780637224b747146105ff57806374f0314f1461062c57600080fd5b8063328c81a314610477578063426120cd146104a45780634509e981146104c457806348890515146104d95780634efaca651461050657600080fd5b806319a902651161022f57806319a902651461033f57806324a13fc01461036c57806324a573ca1461039957806324cfbaa6146103cf5780632fed4184146104275780633136a3b91461045757600080fd5b8063078b0fb71461027757806307c77ccb146102c05780630de60b2a1461030057806311df504514610322578063183ff0851461032a57600080fd5b3661027257005b600080fd5b34801561028357600080fd5b506102ad610292366004612e0b565b6001600160a01b031660009081526002602052604090205490565b6040519081526020015b60405180910390f35b3480156102cc57600080fd5b506102f06102db366004612e0b565b600b6020526000908152604090205460ff1681565b60405190151581526020016102b7565b34801561030c57600080fd5b5061032061031b366004612e26565b6109a9565b005b610320610b02565b34801561033657600080fd5b50610320610c10565b34801561034b57600080fd5b506102ad61035a366004612e0b565b60066020526000908152604090205481565b34801561037857600080fd5b506102ad610387366004612e0b565b60196020526000908152604090205481565b3480156103a557600080fd5b506102ad6103b4366004612e0b565b6001600160a01b031660009081526003602052604090205490565b3480156103db57600080fd5b506104126103ea366004612e0b565b6001600160a01b03166000908152600c6020908152604080832054600d909252909120549091565b604080519283526020830191909152016102b7565b34801561043357600080fd5b506102f0610442366004612e0b565b601a6020526000908152604090205460ff1681565b34801561046357600080fd5b50610320610472366004612e3f565b610d9b565b34801561048357600080fd5b506102ad610492366004612e0b565b60096020526000908152604090205481565b3480156104b057600080fd5b506103206104bf366004612e69565b610f41565b3480156104d057600080fd5b50610320611357565b3480156104e557600080fd5b506102ad6104f4366004612e0b565b60176020526000908152604090205481565b34801561051257600080fd5b50610563610521366004612e0b565b6001600160a01b031660009081526020818152604080832054600183528184205460058452828520546004855283862054600390955292909420549094919291565b604080519586526020860194909452928401919091526060830152608082015260a0016102b7565b34801561059757600080fd5b506102ad6105a6366004612e0b565b6001600160a01b031660009081526020819052604090205490565b3480156105cd57600080fd5b506103206113a5565b3480156105e257600080fd5b506102ad6103e881565b3480156105f857600080fd5b50476102ad565b34801561060b57600080fd5b506102ad61061a366004612e0b565b600d6020526000908152604090205481565b34801561063857600080fd5b506102ad6201518081565b34801561064f57600080fd5b506102ad61065e366004612e0b565b6001600160a01b031660009081526005602052604090205490565b34801561068557600080fd5b50610320611513565b34801561069a57600080fd5b506102ad6106a9366004612e0b565b6001600160a01b031660009081526004602052604090205490565b3480156106d057600080fd5b50600a546106e4906001600160a01b031681565b6040516001600160a01b0390911681526020016102b7565b34801561070857600080fd5b506102ad610717366004612e0b565b60186020526000908152604090205481565b34801561073557600080fd5b50610749610744366004612e8c565b61166a565b6040516102b7929190612eae565b34801561076357600080fd5b506102ad610772366004612e0b565b6001600160a01b031660009081526013602052604090205490565b34801561079957600080fd5b5061032061181d565b3480156107ae57600080fd5b506102ad6107bd366004612e0b565b60076020526000908152604090205481565b3480156107db57600080fd5b506102f06107ea366004612e0b565b6001600160a01b031660009081526014602052604090205460ff1690565b34801561081457600080fd5b5061032061192c565b34801561082957600080fd5b50610412610838366004612e0b565b6001600160a01b03166000908152600e6020908152604091829020825180840190935280548084526001909101549290910182905291565b34801561087c57600080fd5b5061032061088b366004612e26565b611c78565b61032061089e366004612f32565b611de0565b3480156108af57600080fd5b506102ad6108be366004612e0b565b600c6020526000908152604090205481565b3480156108dc57600080fd5b50610320611eb2565b3480156108f157600080fd5b506102ad610900366004612e0b565b6001600160a01b031660009081526001602052604090205490565b34801561092757600080fd5b50610320610936366004612e26565b611f35565b34801561094757600080fd5b506102f0610956366004612e0b565b6001600160a01b03166000908152600b602052604090205460ff1690565b34801561098057600080fd5b5061032061098f366004612fae565b612005565b3480156109a057600080fd5b506103206122c3565b6109b233612665565b600081116109fc5760405162461bcd60e51b81526020600482015260126024820152710416d6f756e74206d757374206265203e20360741b60448201526064015b60405180910390fd5b33600090815260056020526040902054610a159061284c565b5033600081815260056020526040902054610a2f9161285c565b503360009081526005602052604081205490610a4a83612871565b90506000610a588383612888565b3360009081526005602052604090208190559050610a758161284c565b5033600081815260056020526040902054610a8f9161285c565b50604051339085156108fc029086906000818181858888f19350505050158015610abd573d6000803e3d6000fd5b5060405184815233907f0d7976053781e071cecf47e898ad2a6dc87621ca33734e96eb4b92453319e8c99060200160405180910390a2610afc336128c1565b50505050565b610b0b33612665565b60003411610b4b5760405162461bcd60e51b815260206004820152600d60248201526c09aeae6e840e6cadcc8408aa89609b1b60448201526064016109f3565b6000670de0b6b3a7640000610b626103e834612fee565b610b6c919061301b565b90506000610b7982612871565b33600090815260016020526040902054909150610b968183612934565b336000908152600160205260409020819055610bb19061284c565b5033600081815260016020526040902054610bcb9161285c565b5060405183815233907f2df747ea49445e73b60e268d884585144855c4f022c8d6c7aad44708a9c83b22906020015b60405180910390a2610c0b336128c1565b505050565b610c1933612665565b6000610c28620151804261301b565b33600090815260076020526040902054909150811180610ca0576040805180820182526011548152426020808301918252336000818152600e90925284822093518455915160019093019290925591517f9c458d4af2e97b032bd1b235a5af0367e4aa9e385b6b4a8ba12d83ee8804659e9190a25050565b3360009081526007602090815260408083208590556006825280832042905590829052902054610cd981610cd46001612871565b612934565b336000908152602081905260409020819055610cf49061284c565b5033600081815260208190526040902054610d0e9161285c565b50604080518082018252600f548152426020808301918252336000818152600e90925284822093518455915160019093019290925591517f9c458d4af2e97b032bd1b235a5af0367e4aa9e385b6b4a8ba12d83ee8804659e9190a260405142815233907f81a25468fabedbbaa9179ae90960445ca6426a7aeae439b462bb74f0a89ab37590602001610bfa565b610da433612665565b60008167ffffffffffffffff16118015610dc9575060328167ffffffffffffffff1611155b610e055760405162461bcd60e51b815260206004820152600d60248201526c1a5b9d985b1a590818dbdd5b9d609a1b60448201526064016109f3565b3360009081526001602052604081205490610e2183600a61302f565b90506000610e4183610e3c610e3760018661305b565b612871565b612966565b9050610e5f81610e5985610e5486612871565b612888565b85612998565b336000908152600160205260409020819055610e7a9061284c565b5033600081815260016020526040902054610e949161285c565b5033600090815260208190526040902054610ebc82610eb683610cd489612871565b83612998565b336000908152602081905260409020819055610ed79061284c565b5033600081815260208190526040902054610ef19161285c565b5060405167ffffffffffffffff8616815233907f613edc44c859ae57f4e2745ce37ddc4990be3f919e697b4dd07a5205f81b88b29060200160405180910390a2610f3a336128c1565b5050505050565b610f4a33612665565b336000908152601a602052604090205460ff16610f9c5760405162461bcd60e51b815260206004820152601060248201526f4e6f2070656e64696e67207072697a6560801b60448201526064016109f3565b3360008181526019602090815260408083205490519093610fc39230928691889101613083565b60408051601f1981840301815291815281516020928301203360009081526018909352912054909150811461102f5760405162461bcd60e51b8152602060048201526012602482015271125b9d985b1a59081cd95d1d1b195b595b9d60721b60448201526064016109f3565b8260ff166000036110cf57336000908152600560205260409020546110539061284c565b503360008181526005602052604090205461106d9161285c565b503360009081526005602052604090205461109381610cd467016345785d8a0000612871565b3360009081526005602052604090208190556110ae9061284c565b50336000818152600560205260409020546110c89161285c565b50506112b6565b8260ff1660010361113257336000908152600560205260409020546110f39061284c565b503360008181526005602052604090205461110d9161285c565b503360009081526005602052604090205461109381610cd4662386f26fc10000612871565b8260ff166005036111c457336000908152600160205260409020546111569061284c565b50336000818152600160205260409020546111709161285c565b503360009081526001602052604090205461118f81610cd46005612871565b3360009081526001602052604090208190556111aa9061284c565b50336000818152600160205260409020546110c89161285c565b8260ff1660060361122157336000908152600160205260409020546111e89061284c565b50336000818152600160205260409020546112029161285c565b503360009081526001602052604090205461118f81610cd4600f612871565b8260ff166007036112b657336000908152600160205260409020546112459061284c565b503360008181526001602052604090205461125f9161285c565b503360009081526001602052604090205461127e81610cd4601e612871565b3360009081526001602052604090208190556112999061284c565b50336000818152600160205260409020546112b39161285c565b50505b336000908152600460205260409020546112cf9061284c565b50336000818152600460205260409020546112e99161285c565b506112f68360ff16612871565b3360009081526004602052604090208190556113119061284c565b503360008181526004602052604090205461132b9161285c565b50336000818152601a60209081526040808320805460ff191690556018909152812055610c0b906128c1565b60405163cf1ae5b160e01b81526000196004820152309063cf1ae5b190602401600060405180830381600087803b15801561139157600080fd5b505af1158015610afc573d6000803e3d6000fd5b6113ae33612665565b33600090815260016020526040812054906113cd82610e3c6009612871565b90506113e7816113e184610e54600a612871565b84612998565b3360009081526001602052604090208190556114029061284c565b503360008181526001602052604090205461141c9161285c565b503360009081526020819052604090205461143f82610eb683610cd46001612871565b33600090815260208190526040902081905561145a9061284c565b50336000818152602081905260409020546114749161285c565b50604051806040016040528061148f84600f54601054612998565b815242602091820152336000818152600e83526040808220855181559490930151600190940193909355905190917f9c458d4af2e97b032bd1b235a5af0367e4aa9e385b6b4a8ba12d83ee8804659e91a26040516001815233907f613edc44c859ae57f4e2745ce37ddc4990be3f919e697b4dd07a5205f81b88b290602001610bfa565b3360009081526014602052604090205460ff1661152c57565b336000908152601460209081526040808320805460ff19169055601382528083208390556016909152902054801561163c576015548181146115f757600060156115776001846130bf565b81548110611587576115876130d2565b6000918252602090912001546001600160a01b031690508060156115ac6001866130bf565b815481106115bc576115bc6130d2565b600091825260208083209190910180546001600160a01b0319166001600160a01b039485161790559290911681526016909152604090208290555b6015805480611608576116086130e8565b60008281526020808220830160001990810180546001600160a01b0319169055909201909255338252601690526040812055505b60405133907f1c6b0c6e774ba78fff6fe943c64e4e530cb52e0ddf625dd35cb80a0f2bd150a090600090a250565b6015546060908190808510611698575050604080516000808252602082019081528183019092529150611816565b60006116a48587613114565b9050818111156116b15750805b60006116bd87836130bf565b90508067ffffffffffffffff8111156116d8576116d86130fe565b604051908082528060200260200182016040528015611701578160200160208202803683370190505b5094508067ffffffffffffffff81111561171d5761171d6130fe565b604051908082528060200260200182016040528015611746578160200160208202803683370190505b50935060005b818110156118115760006015611762838b613114565b81548110611772576117726130d2565b9060005260206000200160009054906101000a90046001600160a01b03169050808783815181106117a5576117a56130d2565b60200260200101906001600160a01b031690816001600160a01b03168152505060136000826001600160a01b03166001600160a01b03168152602001908152602001600020548683815181106117fd576117fd6130d2565b60209081029190910101525060010161174c565b505050505b9250929050565b336000908152600160205260409020546118369061284c565b50336000818152600160205260409020546118509161285c565b503360009081526020819052604090205461186a9061284c565b50336000818152602081905260409020546118849161285c565b503360009081526003602052604090205461189e9061284c565b50336000818152600360205260409020546118b89161285c565b50336000908152600460205260409020546118d29061284c565b50336000818152600460205260409020546118ec9161285c565b50336000908152600560205260409020546119069061284c565b50336000818152600560205260409020546119209161285c565b5061192a336128c1565b565b61193533612665565b3360009081526020819052604090205461194e9061284c565b50336000818152602081905260409020546119689161285c565b50336000908152602081905260408120549061198782610e3c83612871565b905061199b816113e184610e546001612871565b3360009081526020819052604090208190556119b69061284c565b50336000818152602081905260409020546119d09161285c565b50600044423343604051602001611a0d9493929190938452602084019290925260601b6001600160601b0319166040830152605482015260740190565b60408051601f1981840301815291905280516020909101209050600080611a35606484613127565b90506001811015611a495760009150611a73565b60006007611a5860648661301b565b611a629190613127565b9050611a6f816001613114565b9250505b600082600514611aa25782600614611a9b5782600714611a94576000611aa5565b601e611aa5565b600f611aa5565b60055b6040805160ff86811682526000602083015292909216908201819052915033907f5c45296401ff630a9654379c00459a908687b562d88c8999c349cb22894b6fcb9060600160405180910390a2336001600160a01b03167ff5e3f4fb3e1b45909c1ea49137114634cea181228f751e1754e5ef8365a165bc604051611b4c906020808252600e908201526d14dc1a5b8818dbdb5c1b195d195960921b604082015260600190565b60405180910390a23360008181526017602090815260408083205490519093611b7b92309286918a9101613083565b60408051601f1981840301815291815281516020928301203360009081526018845282812082905560198452828120869055601a9093529120805460ff19166001908117909155909150611bd0908390613114565b33600090815260176020908152604080832093909355600390522054611bf59061284c565b5033600081815260036020526040902054611c0f9161285c565b5033600090815260036020526040902054611c2e81610cd46064612871565b336000908152600360205260409020819055611c499061284c565b5033600081815260036020526040902054611c639161285c565b50611c6d336128c1565b505050505050505050565b611c8133612665565b60008111611cc65760405162461bcd60e51b81526020600482015260126024820152710416d6f756e74206d757374206265203e20360741b60448201526064016109f3565b336000908152600b602052604090205460ff1615611d1e5760405162461bcd60e51b8152602060048201526015602482015274436c61696d20616c72656164792070656e64696e6760581b60448201526064016109f3565b33600090815260056020526040902054611d379061284c565b5033600081815260056020526040902054611d519161285c565b503360009081526005602052604081205490611d6c83612871565b336000818152600b60209081526040808320805460ff19166001179055600c8252808320889055600d9091529081902042905551919250907f71431efdffe03bc79c5607c1cf67764f4cf3e224fb5e5dfc04178260aa0b932290611dd39086815260200190565b60405180910390a2505050565b611de933612665565b6000611e2b8484848080601f0160208091040260200160405190810160405280939291908181526020018383808284376000920191909152506129ad92505050565b33600090815260016020526040902054909150611e488183612934565b336000908152600160205260409020819055611e639061284c565b5033600081815260016020526040902054611e7d9161285c565b5060405133907f5eb22460289ffca9a6ef15bf87f9445e6c3d405ec0b5e00e29f466970fbdbaa790600090a2610f3a336128c1565b600a546001600160a01b03163314611ef95760405162461bcd60e51b815260206004820152600a60248201526927b7363c9037bbb732b960b11b60448201526064016109f3565b600a546040516001600160a01b03909116904780156108fc02916000818181858888f19350505050158015611f32573d6000803e3d6000fd5b50565b3360009081526014602052604090205460ff16611fb657336000818152601460209081526040808320805460ff191660019081179091556015805491820181557f55f448fdea98c4d29eb340757ef0a66cd03dbb9538908a6a81d96026b71ec47590910180546001600160a01b031916861790555493835260169091529020555b3360008181526013602052604090819020839055517fa8004ebd362175ae54576800b471d2ee0e957a999351c9beec953da1fc20fd4090611ffa9084815260200190565b60405180910390a250565b600a546001600160a01b0316331461205f5760405162461bcd60e51b815260206004820152601760248201527f4f6e6c79206f776e65722f4b4d532063616e2063616c6c00000000000000000060448201526064016109f3565b6001600160a01b0382166000908152600b602052604090205460ff166120ba5760405162461bcd60e51b815260206004820152601060248201526f4e6f2070656e64696e6720636c61696d60801b60448201526064016109f3565b6001600160a01b0382166000908152600c602052604090205481146121135760405162461bcd60e51b815260206004820152600f60248201526e082dadeeadce840dad2e6dac2e8c6d608b1b60448201526064016109f3565b6001600160a01b0382166000908152600560205260409020546121359061284c565b506001600160a01b038216600090815260056020526040902054612159908361285c565b506001600160a01b0382166000908152600560205260408120549061217d83612871565b90506121898282612888565b6001600160a01b03851660009081526005602052604090208190556121ad9061284c565b506001600160a01b0384166000908152600560205260409020546121d1908561285c565b506001600160a01b0384166000818152600b60209081526040808320805460ff19169055600c8252808320839055600d9091528082208290555185156108fc0291869190818181858888f19350505050158015612232573d6000803e3d6000fd5b5060408051848152600160208201526001600160a01b038616917f0297329099dae5ca4aa6944c9566214495dd85b044885e9f5a04afa95d548bd1910160405180910390a2836001600160a01b03167f0d7976053781e071cecf47e898ad2a6dc87621ca33734e96eb4b92453319e8c9846040516122b291815260200190565b60405180910390a2610afc846128c1565b6122cc33612665565b336000908152602081905260409020546122e59061284c565b50336000818152602081905260409020546122ff9161285c565b50336000908152602081905260408120549061231e82610e3c83612871565b9050600061232c6000612871565b9050600061233a8483612966565b90506000444233436040516020016123789493929190938452602084019290925260601b6001600160601b0319166040830152605482015260740190565b60408051601f19818403018152919052805160209091012090506000806123a0606484613127565b905060018110156123b457600091506123de565b600060076123c360648661301b565b6123cd9190613127565b90506123da816001613114565b9250505b60008260051461240d578260061461240657826007146123ff576000612410565b601e612410565b600f612410565b60055b6040805160ff86811682526000602083015292909216908201819052915033907f5c45296401ff630a9654379c00459a908687b562d88c8999c349cb22894b6fcb9060600160405180910390a2336001600160a01b03167ff5e3f4fb3e1b45909c1ea49137114634cea181228f751e1754e5ef8365a165bc6040516124b7906020808252600e908201526d14dc1a5b8818dbdb5c1b195d195960921b604082015260600190565b60405180910390a26124cd88610e546001612871565b3360009081526020819052604090208190556124e89061284c565b50336000818152602081905260409020546125029161285c565b50336000818152601760209081526040808320549051909361252a92309286918a9101613083565b60408051601f1981840301815291815281516020928301203360009081526018845282812082905560198452828120869055601a9093529120805460ff1916600190811790915590915061257f908390613114565b336000908152601760209081526040808320939093556003905220546125a49061284c565b50336000818152600360205260409020546125be9161285c565b50336000908152600360205260409020546125dd81610cd46064612871565b3360009081526003602052604090208190556125f89061284c565b50336000818152600360205260409020546126129161285c565b5060408051600081526064602082015233917f91878448ef87c3db4aeb83e60e7deb1240ecae3fd04975ec93547398514cb4ed910160405180910390a2612658336128c1565b5050505050505050505050565b6001600160a01b03811660009081526008602052604090205460ff16156126895750565b6126936000612871565b6001600160a01b03821660009081526001602052604090208190556126b79061284c565b506001600160a01b0381166000908152600160205260409020546126db908261285c565b506126e66000612871565b6001600160a01b038216600090815260208190526040902081905561270a9061284c565b506001600160a01b03811660009081526020819052604090205461272e908261285c565b506127396000612871565b6001600160a01b038216600090815260036020526040902081905561275d9061284c565b506001600160a01b038116600090815260036020526040902054612781908261285c565b5061278c6000612871565b6001600160a01b03821660009081526004602052604090208190556127b09061284c565b506001600160a01b0381166000908152600460205260409020546127d4908261285c565b506127df6000612871565b6001600160a01b03821660009081526005602052604090208190556128039061284c565b506001600160a01b038116600090815260056020526040902054612827908261285c565b506001600160a01b03166000908152600860205260409020805460ff19166001179055565b600061285882306129bb565b5090565b600061286883836129bb565b50815b92915050565b600061286b8267ffffffffffffffff166005612a38565b60008261289c576128996000612871565b92505b816128ae576128ab6000612871565b91505b6128ba83836000612acd565b9392505050565b6001600160a01b03811660009081526009602052604081208054916128e58361313b565b90915550506001600160a01b0381166000818152600960209081526040918290205491519182527faab469e68c1a9950d09bf98d5dbd05ceb4e8e5d3fc891afa9be48ff1911ad4a39101611ffa565b600082612948576129456000612871565b92505b8161295a576129576000612871565b91505b6128ba83836000612b81565b60008261297a576129776000612871565b92505b8161298c576129896000612871565b91505b6128ba83836000612be8565b60006129a5848484612c4f565b949350505050565b60006128ba83836005612cea565b600060008051602061322f8339815191528054604051635ca4b5b160e11b8152600481018690526001600160a01b03858116602483015292935091169063b9496b6290604401600060405180830381600087803b158015612a1b57600080fd5b505af1158015612a2f573d6000803e3d6000fd5b50505050505050565b60008051602061324f83398151915254604051639cd07acb60e01b815260009160008051602061322f833981519152916001600160a01b0390911690639cd07acb90612a8a9087908790600401613176565b6020604051808303816000875af1158015612aa9573d6000803e3d6000fd5b505050506040513d601f19601f820116820180604052508101906129a5919061318a565b6000808215612ae15750600160f81b612ae5565b5060005b60008051602061324f833981519152546040516303056db360e31b815260008051602061322f833981519152916001600160a01b03169063182b6d9890612b34908990899087906004016131a3565b6020604051808303816000875af1158015612b53573d6000803e3d6000fd5b505050506040513d601f19601f82011682018060405250810190612b77919061318a565b9695505050505050565b6000808215612b955750600160f81b612b99565b5060005b60008051602061324f8339815191525460405163022f65e760e31b815260008051602061322f833981519152916001600160a01b03169063117b2f3890612b34908990899087906004016131a3565b6000808215612bfc5750600160f81b612c00565b5060005b60008051602061324f833981519152546040516385362ee760e01b815260008051602061322f833981519152916001600160a01b0316906385362ee790612b34908990899087906004016131a3565b60008060008051602061322f8339815191526001810154604051637702dcff60e01b81526004810188905260248101879052604481018690529192506001600160a01b031690637702dcff906064016020604051808303816000875af1158015612cbd573d6000803e3d6000fd5b505050506040513d601f19601f82011682018060405250810190612ce1919061318a565b95945050505050565b60008051602061324f8339815191525460405163196d0b9b60e01b815260009160008051602061322f833981519152916001600160a01b039091169063196d0b9b90612d409088903390899089906004016131c3565b6020604051808303816000875af1158015612d5f573d6000803e3d6000fd5b505050506040513d601f19601f82011682018060405250810190612d83919061318a565b8154604051630f8e573b60e21b8152600481018390523360248201529193506001600160a01b031690633e395cec90604401600060405180830381600087803b158015612dcf57600080fd5b505af1158015612de3573d6000803e3d6000fd5b50505050509392505050565b80356001600160a01b0381168114612e0657600080fd5b919050565b600060208284031215612e1d57600080fd5b6128ba82612def565b600060208284031215612e3857600080fd5b5035919050565b600060208284031215612e5157600080fd5b813567ffffffffffffffff811681146128ba57600080fd5b600060208284031215612e7b57600080fd5b813560ff811681146128ba57600080fd5b60008060408385031215612e9f57600080fd5b50508035926020909101359150565b604080825283519082018190526000906020906060840190828701845b82811015612ef05781516001600160a01b031684529284019290840190600101612ecb565b5050508381038285015284518082528583019183019060005b81811015612f2557835183529284019291840191600101612f09565b5090979650505050505050565b600080600060408486031215612f4757600080fd5b83359250602084013567ffffffffffffffff80821115612f6657600080fd5b818601915086601f830112612f7a57600080fd5b813581811115612f8957600080fd5b876020828501011115612f9b57600080fd5b6020830194508093505050509250925092565b60008060408385031215612fbf57600080fd5b612fca83612def565b946020939093013593505050565b634e487b7160e01b600052601160045260246000fd5b808202811582820484141761286b5761286b612fd8565b634e487b7160e01b600052601260045260246000fd5b60008261302a5761302a613005565b500490565b67ffffffffffffffff81811683821602808216919082811461305357613053612fd8565b505092915050565b67ffffffffffffffff82811682821603908082111561307c5761307c612fd8565b5092915050565b606094851b6001600160601b031990811682529390941b9092166014840152602883015260f81b6001600160f81b031916604882015260490190565b8181038181111561286b5761286b612fd8565b634e487b7160e01b600052603260045260246000fd5b634e487b7160e01b600052603160045260246000fd5b634e487b7160e01b600052604160045260246000fd5b8082018082111561286b5761286b612fd8565b60008261313657613136613005565b500690565b60006001820161314d5761314d612fd8565b5060010190565b6054811061317257634e487b7160e01b600052602160045260246000fd5b9052565b828152604081016128ba6020830184613154565b60006020828403121561319c57600080fd5b5051919050565b92835260208301919091526001600160f81b031916604082015260600190565b8481526000602060018060a01b038616602084015260806040840152845180608085015260005b818110156132065786810183015185820160a0015282016131ea565b50600060a0828601015260a0601f19601f83011685010192505050612ce1606083018461315456feed8d60e34876f751cc8b014c560745351147d9de11b9347c854e881b128ea600ed8d60e34876f751cc8b014c560745351147d9de11b9347c854e881b128ea601a26469706673582212207b83ccdc917e7b4c432f4054a5e6b052a1ce3868b78796fd710cbe5c2cc911ab64736f6c63430008180033",
  "linkReferences": {},
  "deployedLinkReferences": {}
}